:100000000C9432020C944F020C944F020C944F0249
:100010000C944F020C944F020C944F020C944F021C
:100020000C944F020C944F020C945B1D0C94171D02
:100030000C94581E0C944F020C944F020C944F02D7
:100040000C944F020C944F020C944F020C944F02EC
:100050000C944F020C94341E0C944F020C944F02DB
:100060000C944F020C944F020C944F020C944F02CC
:100070000C944F020C944F020C944F020C944F02BC
:100080000C944F020C944F020C944F020C944F02AC
:100090000C944F020C944F020C944F020C944F029C
:1000A0000C944F020C944F020C944F02050109026C
:1000B000A10185020901A1000509190129081500FE
:1000C0002501950875018102050109300931158165
:1000D000257F95027508810609381581257F9501D0
:1000E00075088106050C0A38021581257F95017572
:1000F000088106C0C005010980A101850319012AF4
:10010000B700150126B700950175108100C0050CD8
:100110000901A101850419012AA002150126A002E6
:10012000950175108100C005010906A1018506052C
:100130000719E029E71500250195087501810205D9
:1001400007190029EF1500250195F07501810205B9
:10015000081901290595057501910295017503910D
:1001600001C00660FF0961A1010962150026FF00B8
:100170009520750881020963150026FF00952075FA
:10018000089102C005010906A101050719E029E748
:1001900015002501950875018102950175088101F9
:1001A0000507190029FF150026FF0095067508812F
:1001B000000508190129051500250195057501910E
:1001C00002950175039101C0FD377A585A00000469
:1001D000E6D6B4460200210116000000742FE5A304
:1001E000E000B300785D003D8889A6D3C0FEA1DAA7
:1001F000343F54BC6C4C6706D21B31714695C31317
:1002000067AC12127697683FADDFD2F2F345C05665
:10021000C2A4E79D15048E705556B57782C907A80C
:10022000A41E13359282B5EEFB296744CF8E082DAC
:1002300020638F06DB924D7825595E8A7FB0784423
:100240002B4F1F52595E01025DFA2970135C62D177
:10025000D83F0ABB6E80253B3F83DE125BFA00006D
:100260001ACCC21E4207895100019401B40100005A
:10027000C21A10EBB1C467FB020000000004595A17
:10028000A800AC00AE00AD00AB00A900AA000902B6
:10029000BF00050100A0FA090400000103010100EC
:1002A0000921110100012244000705810308000112
:1002B00009040100020300000009211101000122CC
:1002C0002200070582032000010705030320000127
:1002D00009040200010300000009211101000122AC
:1002E000B60007058403200001080B03020101008A
:1002F00000090403000001010000092401000109B4
:1003000000010409040400020103000007240100A5
:100310000141000624020101000624020202000934
:100320002403010301020100092403020401010165
:10033000000905060240000500000525010101092C
:10034000058502400005000005250101031201009A
:100350000200000008EBCE07000100010203011CAF
:10036000037600690061006C003A006600360034D4
:10037000006300320062003300630000001003627B
:1003800000690067004B004E004F00420000001E55
:10039000036C006500610066006300750074007402
:1003A00000650072006C00610062007300000004D0
:1003B000030904000000000000000000000000002D
:1003C000000000000000000000000000000000002D
:1003D000000000000000007E0F00D4FFFFFFC700F8
:1003E00000007800000000000000002A2B28000018
:1003F00000000000000000000000000000002900D4
:100400000000002C1E3420212224342627252E36DD
:100410002D3738271E1F202122232425263333364B
:100420002E37381F0405060708090A0B0C0D0E0F9E
:10043000101112131415161718191A1B1C1D2F3121
:1004400030232D350405060708090A0B0C0D0E0F85
:10045000101112131415161718191A1B1C1D2F3101
:1004600030354C0011241FBECFEFDAE0DEBFCDBF28
:1004700011E0A0E0B1E0E8E6FDE402C005900D92D5
:10048000A23BB107D9F723E0A2EBB1E001C01D9276
:10049000A939B207E1F70E947F1E0C9465260C94DF
:1004A0000000482F2091950390915C0357E0291399
:1004B00002C080E0089530E0529FF001539FF00D9C
:1004C0001124E35AFC4F8181681306C080814813D0
:1004D00003C085818111EECF2F5F3F4F2770E7CF9B
:1004E000A3E0B0E0E6E7F2E00C94C9257C01162F0A
:1004F000D42EC22E80919402843071F5E09189024D
:10050000F0918A023097C1F1C701019763E070E072
:100510000E948A25CB01880F991F860F971F198388
:100520004A83CB824E2D481B9E012F5F3F4FBC015B
:100530008FE692E00995E0918D02F0918E0230975E
:1005400039F00C2D2D2D412FB7018FE692E0099542
:100550002396E8E00C94E52582E0E816F10409F41E
:100560005AC083E0E816F104A9F081E0E816F1042E
:1005700009F484C0F12CE12CE0918B02F0918C0203
:100580003097C9F20C2D2D2D412FB7018FE692E047
:100590000995D1CF862F807F803A11F188F4803879
:1005A000D1F0E0917302F0917402803929F730970D
:1005B00019F3123F49F12C2D4D2D612F6F7027C07B
:1005C000803E99F0803FB1F0E0917102F0917202AB
:1005D000803B91F6ECCFE0917502F0917602E7CF87
:1005E000E0917702F0917802E2CFE0917902F09108
:1005F0007A02DDCF623F09F0BFCFE0917B02F0913C
:100600007C02309709F4B8CF2C2D4D2D62EF8FE688
:1006100092E0099590CF862F807F803DB9F0803F92
:10062000D1F0E0917D02F0917E02803C09F0A4CFF0
:10063000309709F4A1CF812F8D7F4D2D612F6F70E1
:10064000813FC9F08FE692E0099575CFE0917F0276
:10065000F0918002EDCFE0918102F0918202633F40
:1006600039F0613F09F088CFE0918302F091840274
:10067000309709F481CF4D2D612FE4CFE0918502B1
:10068000F0918602683F38F4663F09F075CFE0913B
:100690008702F0918802309709F46ECF612F8FE6C0
:1006A00092E0099548CFE8EDF0E080818E7F80836D
:1006B0001092E2001092DA001092E100A0EEB0E099
:1006C0008C9181608C9380818F77808319BCA7ED9A
:1006D000B0E08C918E7F8C9380818F7E808310928E
:1006E000400208952091E4003091E50095E6A901CB
:1006F0002091EC00822F817020FF06C08091E800DD
:1007000080FF06C080E008952091E80022FD1AC015
:1007100080916502882389F0853089F08091EB0013
:1007200085FD0FC02091E4003091E500421753078A
:10073000F9F29150E1F684E0089582E0089583E0B3
:10074000089581E00895EF92FF920F931F93CF9346
:100750007C018B010E947203C82F811117C0809108
:10076000E80085FD0BC08091E8008E778093E8005B
:100770000E947203882399F3C82F08C0F701819162
:100780007F018093F1000150110949F78C2FCF911F
:100790001F910F91FF90EF900895EF92FF920F93AA
:1007A0001F93CF937C018B010E947203C82F81118C
:1007B00017C08091E80085FD0BC08091E8008B7721
:1007C0008093E8000E947203882399F3C82F08C021
:1007D0008091F100F70181937F010150110949F7E0
:1007E0008C2FCF911F910F91FF90EF9008958091E2
:1007F000670287FF13C08091E80082FF06C08091E6
:10080000E8008B778093E80004C080916502811135
:10081000F2CF0895809165028823D9F38091E80092
:1008200080FFF8CF8091E8008E77ECCF982F9093DF
:10083000E900242F762F50E0891731F07091EC00F9
:100840002091ED005091F00021FD07C09F5F97308F
:1008500071F78093E90081E008953091EB003E7FCD
:100860003093EB003091ED003D7F3093ED003091FF
:10087000EB0031603093EB007093EC002093ED00BF
:100880005093F0002091EE0027FDE0CF80E0089526
:10089000B0E0A0E0EEE4F4E00C94C925C8EDD0E0AF
:1008A00088818F7E8883E7EDF0E08081816080839E
:1008B00084E082BF81E08093400288818E7F8883BC
:1008C00002EE10E0F80110821092DA0081EEC82EDC
:1008D000D12CF601108288818F7788838881806887
:1008E000888388818F7D888319BC1092650210925D
:1008F0006602109264021092630290EEE92EF12CCF
:10090000F70180818B7F808388818160888342E0CA
:1009100060E080E00E941604F60180818E7F808373
:10092000F801808181608083808188608083F70105
:1009300080818E7F8083888180618883CDB7DEB798
:10094000E8E00C94E525FC0180916D0290916E0227
:1009500086179707A0F06115710529F49091E800BA
:100960009E779093E80090E06115710551F4911124
:1009700008C08091E80082FF34C080E00895BC0187
:10098000F2CF809165028823C1F18530C1F1809159
:10099000E80083FD30C08091E80082FDEACF8091BD
:1009A000E80080FFE1CF8091F3002091F200382F22
:1009B0006115710519F02830310558F091E02830A3
:1009C000310509F090E02091E8002E772093E800AF
:1009D000CBCF81918093F100615071092F5F3F4F20
:1009E000E7CF80916502882341F0853041F0809106
:1009F000E80083FFBECF81E0089582E0089583E0A0
:100A0000089580914202089587E797E7909301083F
:100A10008093000888E19AE00FB6F894A895809337
:100A200060000FBE90936000FFCF9C014FB7F89419
:100A300080913A0290913B02A0913C02B0913D021C
:100A40004FBF821B930B08952FB7F89460913A0221
:100A500070913B0280913C0290913D022FBF08951E
:100A60002FB7F89480913A0290913B02A0913C02FA
:100A7000B0913D022FBF0895209119012223C9F0A2
:100A800020913E0227FF15C0E62FE695E695E695F4
:100A9000EE31D8F4E80FF92FF11D677021E030E056
:100AA00001C0220F6A95EAF72095828128232283CC
:100AB0000895FC01329608962191621303C0DF016C
:100AC00011971C92E817F907B9F7089520911901B9
:100AD0002223C1F020913E0227FF14C0E62FE695A5
:100AE000E695E695EE31F8F4E80FF92FF11D677001
:100AF00021E030E001C0220F6A95EAF78281822B63
:100B000082830895FC0132962FEF30E04191641703
:100B100051F02F3F19F4411101C0232F3F5F3630B0
:100B2000A9F72F3F09F40895820F911D27FD9A958B
:100B3000FC0162830895A3E0B0E0E1EAF5E00C94E3
:100B4000CF25209137023091380228173907A1F0BC
:100B50009093380280933702E0913502F09136028B
:100B6000309751F024E029839B838A830680F781A4
:100B7000E02DCE01019609952396E2E00C94EB2539
:100B8000A3E0B0E0E6ECF5E00C94CF252091330231
:100B90003091340228173907A1F0909334028093E2
:100BA0003302E0913502F0913602309751F023E0A4
:100BB00029839B838A830680F781E02DCE010196ED
:100BC00009952396E2E00C94EB25E0913502F09133
:100BD0003602309729F00190F081E02D09950895B3
:100BE00080E008950E9430059C0190912D02809133
:100BF0002E02982B21F030932A0220932902909103
:100C00002F0280913002982B21F0309328022093FC
:100C10002702E0913502F0913602309749F082E0E8
:100C200080932B020480F581E02D8BE292E0099500
:100C300008958091260280FD16C081FD16C082FDB8
:100C400016C0809125028823A1F0883280F428E024
:100C5000829FC001112468E270E00E949E25862FC9
:100C6000672B39F0089582E0089584E0089588E0C4
:100C7000089581E008958091260280FD14C081FDD1
:100C800014C082FD16C080912402882381F08E3129
:100C900080F420E5829FC00111246EE170E00E9483
:100CA0009E25862F089584E1089588E2089588E0BE
:100CB000089580E50895282F35EB2303C001112402
:100CC00097FF04C080589109892F089580589F4F3D
:100CD000FBCF0F93E0916F02F091700200E02BE7E1
:100CE00040EB63E070E08FE692E009950F91089584
:100CF0008091230281110E94690608950895089544
:100D0000982F907F903BE9F040F49039D1F0903AE1
:100D1000C1F09038B1F080E00895903D19F020F4D2
:100D2000903CC9F782E00895903E59F0903F99F7C2
:100D3000815F8F3080F7E82FF0E0ED56FE4F808125
:100D4000089583E00895A7E0B0E0E9EAF6E00C94A6
:100D5000CC258C0108511F4F80916502843009F029
:100D60006CC0809111018F708093E9008091E80040
:100D700082FF63C08091E80085FF5FC050E040E0E3
:100D800064E070E0CE0101960E94CD038091E800FE
:100D900085FD05C08091E8008B778093E800FA809C
:100DA0008F2D0E948006282FFD828B818E838C815F
:100DB0008F8321110AC08981843039F1873029F16C
:100DC000863029F121E0853039F630E0E5E0F0E0C9
:100DD000EC0FFD1FE30FF11DF0804FB7F894D80121
:100DE0001196EC911197F0E0CF01019612966C915B
:100DF00070E00E949E25D8015C915817190649F4AD
:100E00004FBF3F5F321710F3A7CF23E0DECF22E0C2
:100E1000DCCF13968D919C911497E80FF91FF08207
:100E200011968C91119790E0019612966C9170E05A
:100E30000E949E25F8018183E3CF2796E5E00C947C
:100E4000E825A4E0B0E0E7E2F7E00C94CA257B01D6
:100E5000142FD22E4A832B830C83842F0E9480066A
:100E600081113AC082E0E816F10489F183E0E816C6
:100E7000F10441F081E0E816F10429F5173F29F467
:100E800085E004C087E0073F09F084E08983809112
:100E900065028430C1F480910C018F708093E90069
:100EA00050E040E064E070E0CE0101960E94A303B0
:100EB000811109C08091E80085FD05C08091E8009E
:100EC0008E778093E8002496E7E00C94E62587EF80
:100ED000D812DBCF86E0DACF12951F701983D7CFF7
:100EE00080E0089590913E0292FF10C041E0282FCB
:100EF0002471243009F040E031E0282F2871283097
:100F000009F030E0431711F02CE0822793FF10C066
:100F100041E0282F2471243109F040E031E0282FEE
:100F20002871283109F030E0431711F02CE08227B6
:100F300030913F0230FF10C051E0282F2171213045
:100F400009F050E041E0282F2871283009F040E0F6
:100F5000541711F029E0822731FF10C041E0282FFB
:100F60002171213109F040E031E0282F287128312A
:100F700009F030E0431711F029E0822794FD877EC5
:100F8000089582389105B9F1B0F48133910509F4DF
:100F90007DC048F48932910509F46DC08A3291050B
:100FA00009F47BC008958533910509F45FC0893346
:100FB000910509F10895833E9105D9F138F4803EF9
:100FC000910529F1823E910579F10895863E9105BA
:100FD000D9F1873E910509F43EC0843E910541F563
:100FE00020913F0221FF24C080913E0284FD19C060
:100FF00087EE90E0089520913E02237009F05AC0D8
:1010000020913F0223FF14C089E290E008952091CF
:101010003E0220FD38C030913F0230FF09C024FF5E
:1010200043C090E080E0089520913E0222FDF7CF7A
:10103000089520913E0222FD3AC030913F0230FDDA
:1010400039C024FFF5CFEDCF20913E0223FFF0CF32
:1010500024FDE7CFCDCF20913E0223FD2EC030915D
:101060003F0231FFEECF84EE90E0089520913E02E2
:1010700025FFDECFC9CF20913E0225FD21C0209162
:101080003F0223FFD5CF89E390E0D2CF20913E02EB
:1010900026FFCECF8AE290E0089520913E0226FFFF
:1010A000C7CF81E390E0089583EE90E0089582EE4B
:1010B00090E0089580EE90E0089586EE90E0089527
:1010C00085E390E008951F93CF93DF930E94C107BB
:1010D000EC01C11580E5D807F0F5C11580E4D8070B
:1010E00008F09CC0C03ED10520F5CD3CD10508F0EC
:1010F00082C0C83AD10578F4C53AD10508F073C06A
:10110000C130D10519F1209709F1C430D105F0F4AF
:10111000D0E0C0E01BC0C33CD105D0F7C85AD0E036
:10112000CC0FDD1FC85BDE4F0990D881C02DD46481
:101130000DC0C11580E2D80708F0D1C0C11581E00B
:10114000D80708F05AC0C83ED10510F7CE01DF918C
:10115000CF911F910895C03682E5D80718F5C034A5
:1011600082E5D80708F06BC0C03282E5D80708F0E6
:101170005FC0C11582E5D80708F497C02C2F2695CB
:10118000269580E2289F900111248C2F8370C1E066
:10119000D0E002C0CC0FDD1F8A95E2F7C22BD32B23
:1011A000DD68D4CFC03A82E5D80760F4C03882E564
:1011B000D80708F459C0CF71D0E0DC2FCC27C46F1A
:1011C000D06AC4CFC03C82E5D80708F462C0C03EF4
:1011D00082E5D80708F09CCFDC2FCC27CC27DF7125
:1011E000C06FD06AB3CFC55AD0E0CB5BDE4FC881A9
:1011F000D0E0D064ABCFD065A9CF8D2F0E9472070D
:10120000182FCE0199270E94C107C12FD0E0DC2FF3
:10121000CC27CC27DF71C82BD92B98CFCE019927AB
:101220000E94C107CC27DF70C82BD92BD06A8ECF84
:10123000CF71D0E0DC2FCC27C16FD06A87CF2C2FA5
:1012400026952695277080E2289F900111248C2FE7
:101250008370C1E0D0E002C0CC0FDD1F8A95E2F7B9
:10126000C22BD32BDC6872CF2C2F269526952770A6
:1012700080E2289F900111248C2F8370C1E0D0E080
:1012800002C0CC0FDD1F8A95E2F7C22BD32BDA68A0
:101290005DCF8C2F8F710E947207C82FD0E0DC2F9A
:1012A000CC27CC27DF71D06251CF8C2F8F710E9459
:1012B000720755E0D695C7955A95E1F7CF70D0E003
:1012C000DC2FCC27282F30E084FF05C044E0220F1C
:1012D000331F4A95E1F7C22BD32BD06937CF8D2F1F
:1012E0008F710E947207182FCE0199270E94C107A3
:1012F000C12FD0E0DC2FCC27CC27DF71C82BD92B16
:10130000D2CF80910E02882331F010920E021092FB
:101310000D0210920C02089590910E02292F28239D
:1013200061F08095892380930E02882339F00E9412
:10133000300590930D0280930C02089590E080E0B8
:10134000F8CF809590910B02982390930B0208950B
:101350001092E9011092E8011092E701089590912E
:10136000E601292F282321F0809589238093E60127
:1013700008958091950390915C03981301C008959E
:101380008F5F8770FACFA82FA77023E09695879577
:101390002A95E1F7FC01EE0FFF1FE80FF91FE60F9A
:1013A000F71F50E040E080E0219130E00A2E02C0BB
:1013B000369527950A94E2F721703327042E01C051
:1013C000220F0A94EAF7822B4F5F5F4F433051059B
:1013D00059F70895282F892F903F89F0911105C062
:1013E0006CED71E0253030F008958C5F823038F478
:1013F00069ED71E0822F90E00E94C309089580E0BA
:10140000F3CF262F277091E001C0990F2A95EAF7B4
:1014100023E0769567952A95E1F7FB01EE0FFF1F14
:10142000E60FF71FE40FF51F50E040E0682F70E073
:101430008191DF0111979B01042E02C036952795FB
:101440000A94E2F7217021952827292328272C9335
:101450004F5F5F4F4330510559F70895282F862F6E
:10146000903F41F0911107C0622F70E04CED51E0C8
:10147000253040F008959C5F9230E0F7622F70E0D5
:1014800049ED51E00E94010AF5CF809316020895BC
:101490009091160221E030E0F90101C0EE0F8A952B
:1014A000EAF7D90102C0AA0FBB1F6A95E2F7EA2B3F
:1014B00001C0220F4A95EAF7892F8E23E81305C051
:1014C000292B822F0E94450A089520952923F9CFC0
:1014D00021E030E001C0220F8A95EAF72095809143
:1014E000160282230E94450A08959091E901809591
:1014F00089238093E901282F277069F4891759F00F
:1015000090913F0292FF07C08695869586950E942E
:10151000680A0E94A809089521E030E001C0220F66
:101520008A95EAF780911602822B0E94450A089557
:1015300090913F0292FF10C098E0899F9001112482
:10154000622B6093E9010E948C0A0E9430059093FF
:10155000E8018093E70108950E948C0A0895809322
:1015600015020895662309F45DC08D3C41F40E9484
:101570003B06819580932E020E94F20508958E3CD1
:1015800019F40E943B06F6CF8F3C31F40E943B06D3
:10159000819580932D02F0CF803D19F40E943B0687
:1015A000F8CF893D29F40E94190680932F02E4CFD9
:1015B0008A3D21F40E9419068195F7CF8B3D31F4C5
:1015C0000E941906819580933002D6CF8C3D19F484
:1015D0000E941906F8CF9FE2980F983070F4815D51
:1015E000990B21E030E001C0220F8A95EAF7809143
:1015F0002C02822B80932C02BFCF8D3D31F4809141
:101600002602816080932602B7CF8E3D21F480911F
:1016100026028260F7CF8F3D09F0AECF809126027F
:101620008460F0CF40912D028D3C59F480912E02C0
:1016300087FF0DC010922E0241110BC010922402A0
:1016400008C08E3C81F480912E0218169CF344232E
:1016500081F080912F0290913002892B09F08CCF7C
:101660001092250289CF8F3C49F447FFF0CF1092AA
:101670002D0280912E028111ECCFE0CF803D19F434
:101680001416ACF3E4CF90912F02893D29F419167A
:10169000F4F610922F02DBCF8A3D19F497FFD7CFD3
:1016A000F8CF909130028B3D29F497FFD0CF109264
:1016B0003002CDCF8C3D19F41916CCF3C8CF9FE280
:1016C000980F983090F4815D990B21E030E0B901DA
:1016D00002C0660F771F8A95E2F7CB018095909143
:1016E0002C02892380932C02B2CF8D3D31F480915E
:1016F00026028E7F80932602AACF8E3D21F4809110
:1017000026028D7FF7CF8F3D09F0A1CF8091260271
:101710008B7FF0CF9C013A9521153F4150F5FC019C
:10172000EE27F170BC0166277270AC01442754703B
:101730009C012227387094FF0EC080E1EF2B09F442
:1017400080E0672B09F08062452B09F08064232B31
:1017500089F08068089581E0EF2B09F480E0672B21
:1017600009F08260452B09F08460232B19F0886012
:10177000089580E008959B01BA019091650294302C
:10178000E1F48093E9009FEF8091E800915085FD9E
:1017900006C085ED8A95F1F700009111F5CF809193
:1017A000E80085FF0AC050E040E0C9010E94A303A1
:1017B0008091E8008E778093E800089543E050E040
:1017C000BC0184E00E94BB0B089546E050E0BC01E0
:1017D00084E00E94BB0B0895CF93DF93EC018091CE
:1017E0001901811111C048E050E0BE0181E00E9462
:1017F000BB0B80E2FE01A3E4B2E001900D928A955A
:10180000E1F7DF91CF91089580913E0287FF05C0F7
:1018100040E284E050E0BE01EACF48E081E0FACF48
:10182000CF93DF93C5E4D0E060E0CE010E94312683
:101830002196C11584E0D807B9F7DF91CF910895BB
:101840000F931F93CF93DF93142F022F8230E8F46E
:1018500061111BC094E0899FE0011124ED9682E0A4
:1018600090E0442311F090E080E0632F8C0F9D1FE7
:101870000E94312683E090E0112311F081E090E096
:10188000602F8C0F9D1F0E943126DF91CF911F91F9
:101890000F9108951F93CF93DF93122F8230B8F4E6
:1018A000611115C0453098F4C42FD0E0CC0FDD1F76
:1018B0009AE0899FC00DD11D1124632FCE01899616
:1018C0000E943126612FCE018A960E943126DF9137
:1018D000CF911F910895AF92BF92CF92DF92EF9276
:1018E000FF920F931F93CF93E0901701F090180190
:1018F00081E090E09093180180931701C0E09AE88E
:10190000C92E92E0D92E2CE8A22E22E0B22E10E0B1
:1019100000E0402F21E030E0C11108C0F801EE0FD7
:10192000FF1FE058FD4F859194919C0160E08C2F42
:101930000E944A0C0F5F1F4F0530110551F721E03F
:1019400030E0C11104C0F601859194919C0141E001
:1019500060E08C2F0E94200C21E030E0C11104C017
:10196000F501859194919C0140E060E08C2F0E94EC
:10197000200CC13071F4F0921801E0921701CF9160
:101980001F910F91FF90EF90DF90CF90BF90AF909D
:101990000895C1E0BCCFCF93C82F6FEF811167E7E7
:1019A00085E290E00E9431266FEFC11165EC86E27E
:1019B00090E00E9431266FEFC11168EF87E290E05E
:1019C0000E943126CF91089580E00E94CB0C60E008
:1019D00088E290E00E9431260E946B0C0E94100C5D
:1019E00081E00E94CB0C0895FF920F931F93CF9339
:1019F000DF93F42E823040F5611126C024E0829FEF
:101A000080011124035C1F4F82E090E0442311F019
:101A100090E080E0800F911F0E941326C82FD0E035
:101A2000DC2FCC2783E090E0FF2011F081E090E0F4
:101A3000800F911F0E9413269E01282BC901CDB74C
:101A4000DEB7E5E00C94E82590E080E0F8CF0F9356
:101A50001F93CF93DF93823008F561111FC045308B
:101A6000E8F4042F10E0000F111F2AE0829F000D00
:101A7000111D1124C80189960E941326C82FD0E099
:101A8000DC2FCC27C8018A960E9413269E01282BA2
:101A9000C901DF91CF911F910F91089590E080E0EF
:101AA000F8CF462F2091210230912202232BD1F42E
:101AB000703F39F4603FB1F480913102909132026D
:101AC0000895711108C0653068F4823058F460E000
:101AD0000E94270D08957D3F41F4611103C041E04C
:101AE000823048F090E080E008957C3FD9F76111A2
:101AF000F9CF8230B8F760E00E94F40C0895CF92DD
:101B0000DF92FF920F931F93CF93DF936C010091AD
:101B1000160280911502082BC1E0D0E010E0FC2EE7
:101B2000C8010C2E02C0959587950A94E2F780FDB6
:101B30000FC0CD2B51F4F12C8F2DDF91CF911F9140
:101B40000F91FF90DF90CF900895D0E0C0E0E7CFF5
:101B5000B6018C2F0E94510D0E946308019749F332
:101B6000EBCFCF93DF93EC010E947F0DBE010E946B
:101B7000510D0E946308DF91CF910895FC012481EB
:101B80002223C1F0808191810E94B10D92959F70B6
:101B9000963091F058F4925F9F70923058F4803FE5
:101BA00019F030F4883E30F481E008959A5FF4CF64
:101BB000843FD1F380E00895883EB0F3813FD1F7B0
:101BC000F3CFA6E0B0E0E7EEFDE00C94CE2549832C
:101BD0005A8349815A819923A1F0222391F0CA01A5
:101BE0000E947F0D182F682F89819A810E942E0AEA
:101BF00069817A81812F0E94510D2696E3E00C9431
:101C0000EA25CA010E94EA09182FF2CF85E290E086
:101C10000E941326873789F486E290E00E941326FB
:101C2000853C59F487E290E00E94132691E0883FBA
:101C300009F090E0892F8170089580E0FCCF9091A9
:101C40003F0292FB222720F9281779F080FB92F9B6
:101C500090933F0260913E0270913F0284E090E0D9
:101C60000E944F2682E00E94750A089580910B021F
:101C700090910A02892B8093B40180910E028823EF
:101C800029F10E94300520910C0230910D02821B37
:101C9000930B8838934110F00E9481098091B40120
:101CA00090910E02892B8093B401809119018823B1
:101CB000E1F180913E0287FF38C08EE1E6EBF1E072
:101CC00090E08150A0F591110E94810940E250E01E
:101CD0006AEE71E084EB91E00E94FF25892B21F1EF
:101CE00080E2E4EBF1E0AAEEB1E001900D928A957A
:101CF000E1F7E0913502F09136023097A9F080913A
:101D00001901882359F080913E0287FF07C0809116
:101D1000B4018093B50186E08093B4010280F38121
:101D2000E02D84EB91E00995089586E0C7CF2191DD
:101D3000222339F29F5FC5CF10920B0280911901C7
:101D4000E6EBF1E0882329F180913E0287FF21C074
:101D50008EE1DF011D928A95E9F790E080E00E9414
:101D6000C00590E080E00E949B0510920A020E944C
:101D7000360E86E0EBE2F2E0DF011D928A95E9F78C
:101D80001092240210922502109226020E94F2055F
:101D9000089586E0DECFAAE2B0E0E1EDFEE00C942B
:101DA000CE2587E692E02091F100DC012D93CD0154
:101DB000B2E08F369B07B9F780916802833009F44F
:101DC00072C0B8F4813009F449C0823009F4B3C05C
:101DD0008091E80083FFA1C2809167029091680220
:101DE0009A3008F09AC2E92FF0E0E959F94D0C94C5
:101DF000B2258A3009F48EC08B3009F471C0893065
:101E000039F780916702813219F780916B029091C6
:101E10006C02009711F00297D9F68091E800877F55
:101E20008093E8008091E80082FF38C09091F30031
:101E30008091F200029731F48091F100813011F02D
:101E4000863021F48091F100809342028091E80075
:101E50008B778093E8000E94F703BACF80916702E6
:101E6000813A09F0B5CF8091E800877F8093E80040
:101E700080916B0290916C02892B61F460E283E4A3
:101E800092E070E00E94A3048091E8008B77809339
:101E9000E8009ECF60E090E080E0F3CF80916502A3
:101EA0008111C0CF95CF80916702813A09F090CF20
:101EB00080916B0290916C02892B09F089CF8091FF
:101EC000E800877F8093E8008091E80080FFFCCFE6
:101ED000809119018093F1008091E8008E77B9CF4D
:101EE00080916702813209F073CF80916B029091EB
:101EF0006C02892B09F06CCF8091E800877F80937A
:101F0000E8000E94F70380916902809319010E9402
:101F10009C0E5ECF80916702813209F059CF80918B
:101F2000E800877F8093E8000E94F70380916A02AF
:101F3000809341024DCF80916702813A09F048CFEA
:101F40008091E800877F8093E8008091E80080FF1F
:101F5000FCCF80914102BECF803899F0823809F0E1
:101F6000DCC180916B028F70873008F0D6C18093FE
:101F7000E9008091EB0085FB882780F91092E90049
:101F800006C08091630290916402911182609091E9
:101F9000E800977F9093E8008093F1001092F100A1
:101FA0008091E8008E77B5C1882309F4A3C18230FF
:101FB00009F0B3C1809169028111A6C180916B02C1
:101FC0008F702FEF280F263008F0A7C18093E9000B
:101FD0002091EB0020FF98C1933031F48091EB0009
:101FE00080628093EB0090C19091EB0090619093A0
:101FF000EB0021E030E001C0220F8A95EAF7209340
:10200000EA001092EA008091EB008860EACF81112B
:1020100084C1109169021F778091E3008078812B41
:102020008093E3008091E800877F8093E8000E941E
:10203000F7038091E80080FFFCCF8091E300806887
:102040008093E30082E0111183E08093650265C113
:102050008058823008F061C12091690230916A0293
:102060002C3DE3E03E07A1F583E08A838AE2898381
:102070004FB7F894DE01139620E03EE051E2E32FE3
:10208000F0E050935700E49120FF03C0E295EF7019
:102090003F5FEF708E2F90E0EA30C0F0C7968D93CF
:1020A0009D932F5F243159F74FBF8091E800877FC0
:1020B0008093E8006AE270E0CE0101960E94A304DA
:1020C0008091E8008B778093E80027C1C096E7CF26
:1020D00080916B0290916C02432F5527433051053C
:1020E00009F44AC078F54130510509F485C08FEBF9
:1020F00090E0EEE8F2E04230510509F00EC1209187
:10210000E800277F2093E80020916D0230916E0255
:102110008217930708F49C0140E02115310509F06E
:1021200070C041116EC08091E80082FDC9CF8091DE
:102130006502882329F2853019F28091E80083FF37
:10214000F2CFBECF4132510509F447C042325105AA
:1021500009F0E3C08330910508F0DFC0FC01EE0F09
:10216000FF1FEB55FE4F0190F081E02D8E559E4FE5
:10217000DC018C9190E01DC0332721303105E9F05E
:102180002115310579F022303105F9F02330310580
:1021900009F0C3C0EFE5F3E0E4918E2F90E0EFE5A6
:1021A000F3E007C0EFEAF3E0E4918E2F90E0EFEA6E
:1021B000F3E0009709F4B1C0A2CFEFE8F3E0E491B7
:1021C0008E2F90E0EFE8F3E0F4CFEDE7F3E0E49159
:1021D0008E2F90E0EDE7F3E0ECCF8330910508F02F
:1021E0009CC0880F991FFC01E555FE4F0190F081BE
:1021F000E02D89E090E083CF82E190E0EDE4F3E030
:102200007ECF80916502882309F45ACF853009F486
:1022100057CF8091E80083FD53CF8091E80082FD85
:1022200082CF8091E80080FF78CF9091F300809179
:10223000F2002115310519F08830910550F041E088
:10224000089709F040E08091E8008E778093E800DD
:1022500064CF44914093F1003196215031090196A9
:10226000E8CF803809F059C08091E800877F8093DB
:10227000E800809166028093F10092CE81114DC0FA
:1022800010916902123008F048C08091E800877F01
:102290008093E800109366020E94F703112311F067
:1022A00084E005C08091E30087FDFACF81E0809350
:1022B000650242E061EC81E00E94160442E261ECBA
:1022C00084E00E94160442E261EC82E00E9416045F
:1022D00042E260EC83E00E94160442E361E885E09C
:1022E0000E94160442E360E886E00E941604809192
:1022F000650213C080916902813079F481E09330E6
:1023000009F080E0809364021092E9008091E80077
:10231000877F8093E8000E94F7038091E80083FFA5
:102320000AC08091E800877F8093E8008091EB00ED
:1023300080628093EB00AA96E3E00C94EA250E9469
:102340009C0E0E9469062FEF84E39CE021508040A0
:102350009040E1F700C0000088E19AE00FB6F894E1
:10236000A895809360000FBE90936000FFCF8823F4
:1023700041F0809590910A02892380930A020E947D
:10238000360E0895882339F090910A02982B909385
:102390000A020E94360E0895882321F00E94A109A6
:1023A0000E94360E0895882339F090910B02982BE5
:1023B00090930B020E94360E0895882399F19CEFAA
:1023C000980F913A40F4682F84EB91E00E943C050D
:1023D0000E94360E089590E2980F983050F487705E
:1023E00091E001C0990F8A95EAF7892F0E94A1090F
:1023F000EFCF9BE5980F933028F490E080E00E94A7
:10240000C005089598E5980F9B3128F490E080E08E
:102410000E949B05089593E3980F933118F460E0B0
:102420000E94B20A0895CF93C82F8823D9F18CEF68
:102430008C0F813AC8F580911901882311F18091A0
:102440003E0287FF1EC0EC2FE695E695E695F0E08C
:10245000EC54FE4F828190E04C2F477021E030E039
:1024600002C0220F331F4A95E2F782239323892B60
:1024700091F06C2F84EB91E00E943C050E94360E97
:102480000AC0E6EBF1E08CEB91E02191C21789F3F1
:102490008E179F07D1F76C2F84EB91E00E946605A1
:1024A0000E94360ECF91089580E28C0F883068F438
:1024B000C77021E030E001C0220FCA95EAF7809191
:1024C0000B02822B80930B02EBCFEBE5EC0FE3309A
:1024D00040F4F0E0EB5BFE4F808190E00E94C0058D
:1024E000E1CFE8E5EC0FEB3150F4F0E0EE0FFF1F29
:1024F000E85BFE4F808191810E949B05D3CF83E3EF
:102500008C0F833178F661E08C2F0E94B20ACACF1B
:102510001F93CF93DF93182FD0E0C0E0893311F4DD
:10252000C0E5D0E0812F0E941312209739F4812F4B
:102530000E94DD11DF91CF911F9108958FE99FE0F7
:102540000197F1F700C000002197EFCF0F931F9381
:10255000CF93DF93C62FD42F022FFC0185818823D0
:10256000A9F0609398030E9430059093970380939D
:102570009603C77081E001C0880FCA95EAF70E94F0
:10258000D311DF91CF911F910F91089580919803FE
:10259000681332C080919603909197030E941505AD
:1025A000883C910548F510E21D0FCD17B9F080E287
:1025B0008C0F883040F4C77081E001C0880FCA9545
:1025C000EAF70E94CC11183048F481E09D2F9770F3
:1025D00001C0880F9A95EAF70E94D311802F0E94BC
:1025E0008812183070F6D77081E001C0880FDA9534
:1025F000EAF70E94CC11C5CFC77081E001C0880FF7
:10260000CA95EAF7F6CFB0E0A0E0E9E0F3E10C9478
:10261000C725EC018AE0A82E2881222309F48FC067
:102620002130C9F599818A81913021F422960E9446
:10263000881205C0923029F422960E941312219626
:10264000EBCF933021F422960E94DD11F8CF943025
:1026500011F02196F4CF229630E020E0AE014F5FDA
:102660005F4F8053990B8A30910550F0215031090A
:1026700030F38FE99FE00197F1F700C00000F6CF3B
:10268000A29EB001A39E700D11249C01260F371F3E
:102690008981EA01E3CFE22FF0E0ED51FC4FB490E5
:1026A000822F86958695869590E0FC01ED52FC4F31
:1026B000E4902770F12C022E02C0F594E7940A945E
:1026C000E2F731E0E322FF24FC01ED53FC4FC4901C
:1026D000D12C022E02C0D594C7940A94E2F731E0BF
:1026E000C322DD24FC01ED54FC4F049110E002C034
:1026F000159507952A95E2F701701127E114F10469
:1027000019F081EE0E941312C114D10419F086EE63
:102710000E9413128B2D0E948812C114D10419F04B
:1027200086EE0E94DD11E114F10419F081EE0E94A1
:10273000DD110115110509F482CF8CE278CFCDB7F8
:10274000DEB7EAE00C94E325A3E2B0E0EAEAF3E1C5
:102750000C94C5256C01DC0114968C911497882388
:1027600009F410C621E04C9111965C9111971296D4
:102770006C91129713967C91139715969C910E94D9
:10278000E10D7C01F6018581882309F4B2C097012F
:1027900037572038310508F042C5FFE0FE1508F430
:1027A000E2C58FEF93E00E9413268111DCC505E49A
:1027B00010E0E11036C019821A821B821C82992413
:1027C0009A9478013FEFE31AF30AC8010E94132696
:1027D00089831A82882309F4C6C5813009F083C031
:1027E000580142E0A40EB11CC7010E941326E82E36
:1027F0008A83882309F4B7C5C5010E941326F82EE1
:102800008FEF8E0D8330D8F4580153E0A50EB11C24
:10281000FB82FF2021F0CE0101960E940313850167
:10282000D0CF011524E0120709F49DC5C8010E940C
:102830001326811101C0EA940F5F1F4FBACF8BEFAF
:102840008E0D833040F5C8010396FB825C01FF20AA
:1028500031F35801A4E0AA0EB11C0E9413268C8308
:102860008823E9F20B811C810130BFEF1B0710F0B8
:10287000102F0027E6E0EE1651F0F7E0EF1619F002
:10288000C8010E94711CC8010E94391CC8CFC80130
:102890000E94711CC4CF24E0E212C1CF580134E081
:1028A000A30EB11CC80103960E941326FF2009F451
:1028B0005AC5882309F457C58150990B989E9001F9
:1028C000999E300D11244F2D4150550BCA01820F96
:1028D000931F019708F4A3CFAFE9BFE01197F1F779
:1028E00000C00000F6CFCE0101960E9403135701ED
:1028F00096CFE0E9EE16E4E7FE0609F01EC59091DA
:10290000D701911143C09091230291113FC0F7016B
:10291000E851FC47E730F10508F019C1EF58F94DCF
:102920000C94B225E11421E7F20631F4882339F33F
:1029300081E08093230217C531E0E31631E7F30607
:1029400039F48823E1F20E946906109223020BC534
:1029500042E0E41641E7F40639F4882381F28091DD
:1029600023028111F0CFE4CF53E9E51654E7F506D1
:1029700031F6882321F20E9478068091000190E0D0
:1029800001968370992780930001EDC4882309F490
:1029900041C090EEE916F10451F40E94780681E0FE
:1029A0008093D6011092D5011092D401DCC4A2EE1E
:1029B000EA16F10461F40E9478068091D60188231A
:1029C00019F081E08093D5011092D601CCC4B3EE0A
:1029D000EB16F10439F49091D5019923D9F00E94B6
:1029E0007806F2CFE2E5EE16F10451F48091010190
:1029F000909102010A979093020180930101B3C460
:102A0000F1E5EF16F10431F480910101909102019A
:102A10000A96F1CF9091000191110FC0D601119645
:102A20009C91119741E050E0491B51092C91205F86
:102A3000BCE04B9F200D11240FC0913079F5F601B9
:102A4000918141E050E0491B5109242F220F220FB0
:102A5000240F90819D5C290F90912302882309F413
:102A600049C0992361F02F77E0916F02F0917002D5
:102A70000FE740E963E070E08FE692E0099580910E
:102A8000D601882329F08091D4018F5F8093D401EF
:102A9000EFEFEE16F10408F03ACF65C4923061F41E
:102AA000D60111969C91119741E050E0491B5109C4
:102AB0002C912D5CB7E0BDCF2CE0933069F693E20A
:102AC000EAE1F1E0DE01119601900D929A95E1F7AD
:102AD000D601EC91EC0FFD2FF11D11969C9141E078
:102AE00050E0491B51092085BCE04B9F200D11246B
:102AF000275FB2CF992361F22F77E0916F02F091B7
:102B0000700200E040E863E070E08FE692E0099533
:102B1000BFCF26E241EE61EEC6010E94A61223C499
:102B200027E245EE65EEF8CF26E241EE60EEF4CF07
:102B300027E245EE64EEF0CF26E241EE62EEECCF06
:102B400027E245EE66EEE8CF28E241E0EBCFD60182
:102B500015968C91882309F452C310929803C701EB
:102B60009057839708F034C384E090E00E941B26BE
:102B700090933F0280933E02F701E150F047E2322A
:102B8000F10520F4E858F94D0C94B22580913E02ED
:102B9000816080933E0295C080913F02886080935F
:102BA0003F028FC080913E028260F3CF80913E024F
:102BB0008460EFCF80913E028860EBCF80913F022E
:102BC0008160EDCF80913F028260E9CF80913E022B
:102BD0008061DFCF80913E028062DBCF80913E0238
:102BE0008064D7CF0E949C0E80913E028068D1CF36
:102BF00080913E028C60CDCF80913F028360CFCF29
:102C000080913E028E7FC5CF80913F02877FC7CFE4
:102C100080913E028D7FBDCF80913E028B7FB9CFE8
:102C200080913E02877FB5CF80913F028E7FB7CFE4
:102C300080913F028D7FB3CF80913E028F7EA9CFDE
:102C400080913E028F7DA5CF80913E028F7BA1CFE8
:102C50000E949C0E80913E028F779BCF80913E0216
:102C6000837F97CF80913F028C7F99CF80913E02E6
:102C700082FB992790F921E0922790FB82F990FB43
:102C800083F987CF80913F02982F909591708E7F26
:102C9000892B90FB81F983CF90913E02892F8F7B06
:102CA00096FF806476CF0E949C0E90913E02892F01
:102CB00097FB87F980586DCF61E08EE090E00E942D
:102CC000312660913E0270913F0284E090E00E94C4
:102CD0004F260E949C0E47C360E0EFCF90913E02CA
:102CE000892F8F7E94FF806154CF90913E02892F6F
:102CF0008E7F90FF81604DCF90913F02892F877F1B
:102D000093FF88604CCF81E00E948C0A43E062E030
:102D100081E00E94480A27C381E00E94680AF6CF3A
:102D200082E0F2CF3BE5E3163CE7F30671F14CE5B8
:102D3000E4164CE7F406F9F05AE5E5165CE7F5060B
:102D400009F09DC281E01EC00E949C0E0E9469068F
:102D50008FEF94E3ACE081509040A040E1F700C0D9
:102D600000000E9404056FEF7FEF90E080E00E947A
:102D70004F260E949F1180913F0282FB882780F995
:102D800091E089270E941F0E7AC280E0FBCFC80124
:102D90000E94EA09F82E84C2212F2F70F22E107F94
:102DA00019F0F29490EFF922EE20B9F0FF2069F0CB
:102DB00080E2800F883010F0811009C080910B02F2
:102DC000F82AF0920B020E94360E802F43C08091A9
:102DD0000A02F82AF0920A02F6CF802F0E94DD1133
:102DE000FF20D1F1005E083010F0811004C08F2D5B
:102DF0000E94A10906C0F09480910A02F822F09284
:102E00000A020E94360E28C0312F3F70F32E107F29
:102E1000103219F0F29480EFF822882059F041E046
:102E2000841609F496C0EE2009F4A2C0BB2009F470
:102E30004FC0CBCF80913F0282FD46C0EE20F1F122
:102E4000FF2039F080910B02F82AF0920B020E94C9
:102E5000360E80E00E941312A92DA850BB0B1497C8
:102E600010F40E94E505AA20A9F08091E90180FDF7
:102E700011C0F60115828695869586950E948C0A6A
:102E8000C6010E94A4138091E901869586958695D6
:102E90000E94680A20E0D6014C9111965C9111972E
:102EA00012966C91129713967C91139714968C91AD
:102EB000149715969C910E94E10D64C280E00E94D7
:102EC000DD11FF2049F293CFEE2071F1B11004C063
:102ED0008F2D0E94D311C0CF51E0B51211C01091B7
:102EE0000E028F2D8123F81609F4B6CF0E9430050B
:102EF00090930D0280930C02F12AF0920E02ACCF57
:102F000085E0B812A9CF8F2D0E94D3118F2D0E947A
:102F10008C098091E6019F2D9823F91609F49CCF26
:102F2000F82AF092E60198CFB1100AC08F2D0E94C6
:102F3000CC118F2D0E948C098F2D0E94AF098CCF50
:102F400091E0B91289CF80910B028F2109F484CFCF
:102F5000EDCFEE2029F0A5E0AB1508F47DCFB8CF7A
:102F6000B4E0BB1508F478CF8F2D0E94CC1174CF3C
:102F7000BB20D1F3E9E38E1209C0FFEF27EE33E067
:102F8000F15020403040E1F700C00000802F0E9447
:102F9000DD1162CF812F86958695837061F0813037
:102FA00009F05ACFC8019370E11002C080E090E0B0
:102FB0000E949B0551CFC8019370E11002C080E0D0
:102FC00090E00E94C00548CF6E2D802F0E94B20A6B
:102FD00043CF812F837089F5E1103ECF402F42957A
:102FE00046954770440F440F802F8F70042E01C008
:102FF000880F0A94EAF7202F207104FF07C02FE002
:1030000030E001C0220F4A95EAF7209516951695F3
:103010001370123069F050F430911502113029F01C
:10302000822B83230E94AF0A17CF832B822BFACFE8
:10303000282B809115028227F5CF8695EE2011F07E
:10304000812F8170882309F407CF402F4295469540
:103050004770440F440F802F8F70042E01C0880FDB
:103060000A94EAF7202F207104FF07C02FE030E018
:1030700001C0220F4A95EAF7209516951695137010
:10308000123069F050F430911602113029F0822B81
:1030900083230E94450AE0CE832B822BFACF282B74
:1030A000809116028227F5CF1F70EE2029F0812F24
:1030B0000E948C0A802F0DCF802F0E94CC11812F6F
:1030C0000E94680AC9CE802F42EF8416B1F14815DC
:1030D00070F050EF8516D1F091EF891691F0EE2047
:1030E00009F466C0B11071CE812F8F712AC0A3EF91
:1030F0008A1651F1B4EF8B12F2CF80913F0282FD1C
:103100002FC0812F8F71EE20D9F21BC0EE2081F0ED
:10311000E4E0EB1508F4A0CE1F7181E090E0012EF1
:1031200001C0880F0A94EAF7909116028927B1CF5F
:10313000F5E0FB1508F490CEEFCF812F8F71E110F1
:10314000BFCF0E948C0A88CE80E0EE2009F4A1CF88
:103150001F7181E0012E01C0880F0A94EAF799CF10
:10316000EE20C9F08091E9018770843041F40E941B
:10317000A809812F8F710E94680AA12C6DCE24E0CE
:103180002B15D8F31F71812F0E948C0A63E0812FC9
:103190000E94980AF2CF34E03B1530F40E94A8094F
:1031A00064E0812F8F71F4CF81E00E94750AE5CF32
:1031B000BB2059F0893309F0E9CE4FEF57EE83E099
:1031C000415050408040E1F7DFCE812F8F7178CFA2
:1031D000B6E1EB16BCE7FB0699F580910B028A7A03
:1031E00091E009F490E09093D80169E2811165E3E0
:1031F00084EB91E00E9466050E94360EB4C0E6E1C1
:10320000EE16ECE7FE0609F08AC08091D80169E26B
:10321000811165E384EB91E00E943C05EDCFF0E97C
:10322000EF16F4E7FF0609F49BC091E9E91694E76D
:10323000F90609F088C00E9478061092D70193C061
:1032400027E7E2162CE7F20609F45DCD38E7E3162E
:103250003CE7F30609F464CDB3E0EB16BCE7FB06EC
:1032600009F481CD08F05ECDE114FCE7FF0609F416
:103270006BCD21E0E2162CE7F20609F47ACDD601F7
:1032800015968C9115970D911C91882309F47FCD8B
:10329000C8010E947F0DF82E682FC8010E942E0AD7
:1032A000B8018F2D0E94510D0E9463088C01882E59
:1032B000F601E580B680B2943FE0B3228091E90147
:1032C0008770F1F0AE2CEE20E1F0812F807F80340A
:1032D00051F080E2800F883098F0B11004C0812F47
:1032E000807E803269F080913F0282FF09C082E0D7
:1032F0000E94750A8091E9018770AA24A394811124
:10330000A12C912E92942FE09222FBE0F91508F463
:10331000A3CDE92DF0E0E656F94D0C94B22547E730
:10332000E4164CE7F40609F4F7CC82E058E7E5161A
:103330005CE7F50609F4F1CCA2CFA1E9EA16A4E70F
:10334000FA0609F4DCCAF2E9EF16F4E7FF0609F021
:10335000E9CA9091D701882309F4D1CA91116BCFA2
:1033600081E08093D7018091E901877059F0F601DF
:103370008581882339F080913F0282FF03C082E07B
:103380000E94750AA396ECE00C94E125CF93DF939D
:103390008091E501807F09F04DC08091E401882390
:1033A00009F448C0E091950350915C03C091E0019D
:1033B000D091DF016091E1017091E20147E05E1779
:1033C000C9F18E2F90E0E49FF0011124E35AFC4FE5
:1033D0002481222391F1489FF001499FF00D11248F
:1033E000DF01A35ABC4F11962C9111972C1325C0C5
:1033F0002C912D1322C015962C91159721111DC0CB
:1034000012962D913C91261B370B283C3105A8F4D0
:103410008091E5018F7080618093E501ED59FC4F4B
:1034200080818F70806180838FED91E00E94A41372
:103430000E94B909DF91CF910895FC013196E770A0
:10344000BECFA4E1B0E0E7E2FAE10C94C5258C011F
:1034500086E0F801DE011F9601900D928A95E1F752
:10346000F8018481E5809FEDA92E91E0B92E90911D
:10347000E301911128C0882319F1EE20F1F0C80171
:103480000E94BE0DF82E8823C1F087E0F801D50117
:1034900001900D928A95E1F78091E301813031F43A
:1034A0008091DF019091E0010E94B10D0E94C61948
:1034B0008F2D6496ECE00C94E125C8010E94A413C2
:1034C000FF24F394F5CFD080C18082809380F09068
:1034D000E4012091E1013091E201A401421B530B70
:1034E000FF2009F4D9C0483C510508F092C0882358
:1034F000F9F29091E0018091E501282F207F09F0F9
:1035000056C0C91214C09091DF01D91210C0E11049
:1035100048C08F7080618093E5018FED91E00E943B
:10352000A4138091E501F8018683F12CC1CFE1104D
:1035300038C06C2D8D2D0E9451026C2D8D2D0E9456
:103540005102E82E8111F1CFDF86C88A8F859889D4
:103550000E94B10D292F22952F70243058F49F70AE
:10356000223088F0992399F0F8019681907F79F4C0
:10357000FE2C9ECF2A5F2F70223068F0C8010E9477
:10358000A413EF2CF5CF992311F0882389F3805EE3
:10359000883070F3F3CF803F58F3815F833070F74A
:1035A000E7CF8091E50181608093E501BECFC9122C
:1035B00007C09091DF01D91203C0EE2009F48DC03D
:1035C000C8010E94BE0D882309F477CFEE2009F4CC
:1035D00074CF8091E501803288F02091DF01309135
:1035E000E001398728879B868A869091E3019C8732
:1035F0001D868E87CE0108960E94A41387E0F801ED
:10360000AFEDB1E001900D928A95E1F70E94C619E5
:1036100057CF9091E501292F207F51F48FED91E054
:103620000E94A41387E0F50111928A95E9F77DCFF6
:10363000882309F43DCF8091E0018C1110C0809166
:10364000DF01D8120CC0E1100AC09683C8010E94A5
:10365000A41387E0F50111928A95E9F729CFC801F3
:103660000E94BE0D882309F428CFEE2009F425CF4F
:103670008091E501803210F22091DF013091E0016C
:103680003A8329839C828B829091E3019D831E82E1
:103690008F83CE010196B0CF483C5105D0F68823E8
:1036A00009F40ECFFE2CEE2009F407CF8091E00143
:1036B0008C1120C08091DF01D8121CC08091E501DF
:1036C00080FD0FC0982F907F61F08683903F31F08E
:1036D000982F907F905F8F70892B8683C8010E94FE
:1036E000A41387E0F801AFEDB1E001900D928A9547
:1036F000E1F7DECEC8010E94BE0D81117FCF80911F
:10370000E50181608093E501C8010E94A413D0CE39
:10371000ABE1B0E0EEE8FBE10C94CD254E8B5F8B86
:10372000688F798F8A8F9B8F092F911110920A02CF
:103730001D8A86E0FE017696DE011F9601900D92AD
:103740008A95E1F71A8D80913F0282FF1CC00E948A
:1037500030052091E7013091E801821B930B8838F6
:10376000934120F08091E90182FF7FC00E943005E3
:1037700020910C0230910D02821B930B88389341EB
:1037800010F00E948109112349F021E04F855889EA
:1037900069897A89812F902F0E94E10D1B8B0C8BF8
:1037A00087E0FE013F96DE01189601900D928A9502
:1037B000E1F7CE0108960E94211A81110CC087E022
:1037C000FE013896DE01119601900D928A95E1F77F
:1037D0008C8581110BC017E08091950390915C035B
:1037E000891331C06B96E4E00C94E92520915C03C9
:1037F00030E0C901019687709927409195034817D9
:10380000190699F097E0929FD001939FB00D112473
:10381000A35ABC4FFE01319601900D929A95E1F7A3
:1038200080935C030E94B909D6CF0E949C0E10922F
:103830005C031092950387E0EFEDF1E0DF011D924C
:103840008A95E9F7C8CF819FC0011124835A9C4F04
:103850000E94211A882331F28091950390E001960D
:103860008770992780939503B7CF82E00E94750AED
:103870007DCFA6E0B0E0EFE3FCE10C94CD258C0118
:103880009093320280933102011580E21807C0F450
:10389000802F0E94DD11C8010E948A0B9801205ED2
:1038A00031092830310518F00115110531F40E9455
:1038B000CC112696E4E00C94E9250E94B711F9CFCB
:1038C00080EF89838A830E9430058160682F9C8302
:1038D0008B8349815A817C8181E090E00E94881B22
:1038E000E8CFA6E0B0E0E7E7FCE10C94CD258C0141
:1038F0009093320280933102011580E21807C0F4E0
:10390000C8010E948A0B9801205E310928303105D8
:1039100018F00115110549F40E94D311802F0E945F
:1039200013122696E4E00C94E9250E94C211F6CF0A
:1039300080EF89838A830E9430058160682F9C8391
:103940008B8349815A817C8181E091E00E94881BB0
:10395000E8CFA6E0B0E0EFEAFCE10C94CD250E94B0
:1039600030058C0180910F02909110028017910711
:1039700081F019821A820E943005682F49815A818C
:10398000792F80E090E00E94881B10931002009332
:103990000F022696E4E00C94E925EEE7F1E030E032
:1039A00041E021912F3FC9F1A22FA295AF70B0E065
:1039B00090968C9190E02F7002C0959587952A95EE
:1039C000E2F780FD2AC0842F382B440F81E0E338D2
:1039D000F80739F780911402831709F13093140224
:1039E00081E0809313020E9430059093120280932D
:1039F000110280911102909112020E941505059703
:103A000090F08091140290912002981771F08093A9
:103A1000200281E010921302089580E0D5CF8091BA
:103A200013028111E6CF80E0089580E0F3CF1F926A
:103A30000F920FB60F9211242F933F934F935F93E2
:103A40006F937F938F939F93AF93BF93CF93DF93A6
:103A5000EF93FF93D091E900DF708091EC00C82FC5
:103A6000C17080FDC0E81092E9008091F000877F6E
:103A70008093F00078940E94CB0E1092E900809120
:103A8000F00088608093F000CD2BCF70C093E900E8
:103A9000FF91EF91DF91CF91BF91AF919F918F9166
:103AA0007F916F915F914F913F912F910F900FBE3A
:103AB0000F901F9018951F920F920FB60F9211241E
:103AC0002F933F934F935F936F937F938F939F9326
:103AD000AF93BF93EF93FF938091E10082FF09C002
:103AE0008091E20082FF05C08091E1008B7F80938E
:103AF000E1008091DA0080FF24C08091D80080FF2F
:103B000020C08091DA008E7F8093DA008091D90006
:103B100080FF9DC080E189BD82E189BD09B400FEBE
:103B2000FDCF81E08093650280914002811109C040
:103B30000E9453030E9448048091E20084608093B5
:103B4000E2008091E10080FF17C08091E20080FFD9
:103B500013C08091E2008E7F8093E2008091E200AA
:103B600080618093E2008091D80080628093D800C9
:103B700019BC85E0809365028091E10084FF2BC031
:103B80008091E20084FF27C080E189BD82E189BD88
:103B900089B5982F917080FFFBCF8091D8008F7DE1
:103BA0008093D8008091E1008F7E8093E100809126
:103BB000E2008F7E8093E2008091E200816080933A
:103BC000E20080916602882309F447C084E0809374
:103BD0006502809165028091E10083FF27C080919A
:103BE000E20083FF23C08091E100877F8093E100A2
:103BF00082E080936502109266028091E1008E7FE0
:103C00008093E1008091E2008E7F8093E2008091BA
:103C1000E20080618093E20042E060E080E00E9488
:103C200016048091F00088608093F000FF91EF917E
:103C3000BF91AF919F918F917F916F915F914F91C4
:103C40003F912F910F900FBE0F901F90189519BCA8
:103C5000109265021092400274CF8091E30087FDBC
:103C600093E090936502B5CF78941F921FB61F9290
:103C700011248F939F93AF93BF9380913A029091B9
:103C80003B02A0913C02B0913D020196A11DB11DE5
:103C900080933A0290933B02A0933C02B0933D0282
:103CA000BF91AF919F918F911F901FBE1F9018954C
:103CB0001F921FB61F9211248F939F93AF93BF93B0
:103CC00080913902811113C080913A0290913B0298
:103CD000A0913C02B0913D024196A11DB11D80937F
:103CE0003A0290933B02A0933C02B0933D02BF91F5
:103CF000AF919F918F911F901FBE1F901895CDB7C8
:103D0000DEB7C654D1090FB6F894DEBF0FBECDBFE3
:103D100085B7806885BF85B7806885BF109294029B
:103D2000109296021092950280EC8093590387E9D5
:103D300092E090935B0380935A0310925803109281
:103D4000570310927402109273021092760210922E
:103D50007502109278021092770210927A021092F5
:103D6000790210927C0210927B0210927E021092D5
:103D70007D021092800210927F02109282021092B5
:103D80008102109284021092830210928602109295
:103D90008502109288021092870210928A02109275
:103DA000890210928E0210928D0281E297E0909328
:103DB000700280936F0283EA96E090939002809362
:103DC0008F028FE796E090938C0280938B028EE7B0
:103DD00096E0909372028093710284B7877F84BFCC
:103DE0000FB6F894A8958091600088618093600078
:103DF000109260000FBE80E890E00FB6F8948093B8
:103E00006100909361000FBE80E797E09093B3014B
:103E10008093B2010E9453030E9448048091E20003
:103E200084608093E2007894809165028823A1F0F9
:103E30001091E9001F709091EC00892F817090FD26
:103E400080E8182B1092E9008091E80083FD0E9421
:103E5000CB0E1F701093E90082E084BD93E095BD06
:103E60009AEF97BD80936E000E94060E811102C0EA
:103E70000E94E40C81E080931B025098589A52985B
:103E80005A9A8FE891E00197F1F700C00000209165
:103E90001B024CE152E0FA018E2F841B821708F4BA
:103EA000BBC0AEE7B1E043E851E061E070E08D9166
:103EB0008F3F91F0E82FE295EF70F0E011A18F7045
:103EC0009B0101C0220F8A95EAF7922F90959123CA
:103ED00091A382A1822B82A34A175B0741F710921C
:103EE00020021092140290E080E00E941B26863E81
:103EF0009E4F21F40E94060E811167C066EE7EEF90
:103F000090E080E00E944F2660E082E090E00E9416
:103F1000312660E083E090E00E9431261092150285
:103F200060E074E184E090E00E944F2660E086E06B
:103F300090E00E9431266FEF87E090E00E943126EA
:103F400040E050E0BA0188E090E00E94432660E043
:103F500084E290E00E94312660E087E190E00E94D8
:103F6000312660E08CE090E00E94312660E08DE038
:103F700090E00E94312619821A821B821C821D82C7
:103F80001E821F82188648E050E068E170E0CE0192
:103F900001960E94212640E050E0BA0180E290E0C4
:103FA0000E94432680E00E94CB0C0E94E40C40E07B
:103FB00050E0BA018FE090E00E94432640E050E0DC
:103FC000BA0183E190E00E94432682E090E00E94E3
:103FD00013268093170284E090E00E941B269093A2
:103FE0003F0280933E020E94CD1CFFEF26E781E056
:103FF000F15020408040E1F700C000000E94CD1C3D
:104000008091200280FF12C06FEF7FEF90E080E090
:104010000E944F260E94040589B181704A9904C00C
:1040200090E0892B819338CF92E0FBCF83E090E042
:104030000E9413260E94AF0A83E091E0909336021B
:104040008093350218E1612E712C80916502B0E4F5
:10405000FB2E00E112E1853009F449C00E94CD1C1D
:10406000809118021091200281134BC00E94A91C5C
:1040700010E000E062E0962E74E0A72EB12CEDEF88
:104080008E2E55245394FCEF4F2EA3E03A2EF8C009
:1040900080916502843009F1109239020FB6F894CC
:1040A000A895609260000FBEF092600083B7817F98
:1040B000846083BF83B7816083BF7894889583B71A
:1040C0008E7F83BF0FB6F894A895809160008861B9
:1040D00080936000109260000FBE8091640288237C
:1040E00031F00E94CD1C809120028111E5C48091A5
:1040F0006502853009F4CCCF0E949C0E0E94E50534
:10410000ADCFE82EE12600E0FF24F394DD24D39424
:104110008E2D8F2141F122960FAF229723961FAE4D
:1041200023970E94300525969FAF8EAF2597269640
:10413000DFAE269791E0812F8F2109F490E027963A
:104140009FAF279722964FAD229723965FAD239777
:1041500024966FAD249725967FAD259726968FAD33
:1041600026970E94881B0F5FFF0C053089F610937D
:1041700018020E9424057CCFE12EF12CE9B1E170F8
:104180004A99E6C180E08E2BD701A45EBD4FEC9129
:104190009E2F9370891709F472C0EE0FEE0FE82B73
:1041A000EC93EF70F0E0ED57FE4FC701865E9D4F38
:1041B0006C018081F6019081890F808320E084303A
:1041C0004CF1F701E75EFD4F80818F5F80830E9495
:1041D00030051DAB4EAA682F8FAB98AF39AE5AAEE3
:1041E000412F5CEF792F83E091E00E94881B0E94B1
:1041F00030051BAF4CAE682F8DAF9EAF3FAE219602
:104200001FAE2197412F5CEF792F83E090E00E9451
:10421000881B21E0F60180818D3F3CF5F701E75EC8
:10422000FD4F8081815080830E94300519A78AA6A6
:10423000682F8BA79CA79DA65EA6412F5DEF792FC7
:1042400082E091E00E94881B0E9430051FA788AA87
:10425000682F89AB9AAB9BAA1CAA412F5DEF792FDF
:1042600082E090E00E94881B21E0F6018081082E08
:10427000000C990BB5010E949E258083022B1F5FC5
:1042800080911B02181708F477CF01110E942405B2
:1042900086E0EBE2F2E08E010F5F1F4FD801019044
:1042A0000D928A95E1F7B0902C02E0902D02F090EB
:1042B0002E02C0902F02D090300210922D02109248
:1042C0002E0210922F02109230028F2D8E2909F4A7
:1042D00045C08091290290912A020E9415059C01F7
:1042E00090912402992309F410C425313105B0F1CD
:1042F0009F3F19F09F5F90932402EE2059F00E9497
:104300003B069FEF1E140CF491E0899F802D112431
:1043100080932D02FF2059F00E943B0691E01F146C
:104320000CF09FEF899F802D112480932E028091A5
:104330002D02882399F0A0902E02AA2079F00E94E5
:104340005B06882309F406C180932D028A2D0E9402
:104350005B06882309F400C180932E028D2D8C29E1
:1043600009F445C080912702909128020E9415050A
:104370009C0190912502992309F4C2C3213531058E
:10438000B0F19F3F19F09F5F90932502CC2059F028
:104390000E9419069FEF1C140CF491E0899F802D58
:1043A000112480932F02DD2059F00E94190691E01C
:1043B0001D140CF09FEF899F802D112480933002F3
:1043C00080912F02882399F0C0903002CC2079F0A0
:1043D0000E945B06882309F4C1C080932F028C2DB4
:1043E0000E945B06882309F4BBC080933002809151
:1043F0002C028B1117C080912D02882311F08E1191
:1044000011C020912E02222311F0F2120BC09091C4
:104410003002992311F09D1105C030912F023323F2
:1044200009F460C30E94F20586E0F801ABE2B2E055
:1044300001900D928A95E1F7E0918F02F091900240
:10444000309719F08FE692E009959FB7F894E090C5
:10445000580380915703E81608F484C0E81A9FBFF8
:10446000D12CC12CF12C33E0832E912CAA24A394BF
:10447000B12C54E0452E33243394CE14DF0408F4D9
:1044800075C00E94E50590911D02891721F0809367
:104490001D020E942405809165028430E1F4809120
:1044A0000C018F708093E9009091E80090FF13C099
:1044B00090916502943079F48093E9009091F30033
:1044C0008091F200892B39F08091E8008E778093FB
:1044D000E8000E94720380916502843009F0B5CD36
:1044E00083E08093E9008091E80082FFAECD809167
:1044F000E80090E085FF08C050E040E060E270E036
:10450000C8010E94CD0391E08091E8008B778093F1
:10451000E800992309F499CDE0902102F09022025D
:104520008981E114F10409F4D6C08E3F09F016C167
:104530008A81833020F08550833008F00FC1EA81F2
:10454000EE3008F00BC1F0E0EA55F94D0C94B225BD
:1045500082E019CE81E0F8CE81E0FECE81E03DCF51
:1045600081E043CF20915903E20E78CF8091570329
:1045700090E06091590370E00E949E2520915A03BB
:1045800030915B03280F391FF9015080209094026D
:10459000F7EFF515E8F43092940220E040E0652D45
:1045A00081E090E00E947002209294022FB7F8946C
:1045B0008091570390E001966091590370E00E944A
:1045C0009E25809357032FBFFFEFCF1ADF0A55CFE9
:1045D00057FE52C024E0221631F050929102B09260
:1045E0009602A0929502852D0E948006813069F086
:1045F0008823D1F08230A9F0833099F01092940290
:104600001092960210929502D1CF8093940220E0EE
:1046100040E0652D81E090E00E94700210929402CB
:10462000C5CF80939402C2CF80EF5816E1F097EF88
:104630005912E4CF2091950230919602C901B4013C
:104640000E948A25FC01E159FD4F52A2C901019641
:10465000909396028093950220919302409192024A
:1046600060919102D9CF4092940250929102B092FF
:104670009602A09295029ACF222009F497CF20911A
:10468000950230919602C901B4010E948A25AC01BD
:10469000FC01E159FD4F52A2C90101969093960287
:1046A000809395024130510589F04230510509F05F
:1046B0007DCF2091930240919202609191020E94DD
:1046C000700280919402843091F670CFE2E020E095
:1046D0002E126CCFF0CF8D3009F478C0B8F484304E
:1046E00009F45BC048F4823049F108F047C08130DA
:1046F00009F18FEF898332C0863009F464C008F471
:1047000057C08C30B1F780E18A8328C0813109F429
:10471000B9C040F48F3009F487C008F45BC00E9430
:10472000100C1CC0833109F4D7C008F4ADC08E3F13
:1047300001F705CF1A8289E08B8310C08A8182300D
:1047400009F4D5C1833089F0813099F60E9424059F
:104750000E94B8256B837C838D839E8340E250E06A
:10476000B80182E00E94BB0B70CC80911701909140
:104770001801892B99F380912002DECF8A81823043
:1047800009F0B7CF6B817C818D819E810E94B82515
:1047900088E290E00E943126E1CF4C816B818A81D2
:1047A0000E94270D9827892798279E838D83D6CF2F
:1047B0002D813E813227232732274C816B818A81CC
:1047C0000E944A0CCBCF0E946B0CC8CF83E08A8337
:1047D0008BEBB2CF8C81A82EB12C2DE1A216B104A7
:1047E00008F0BCCFEA80FB80FE24EF24FE246801A1
:1047F000A00EB11EC7018B5B9F4FCA14DB0409F4E6
:10480000ADCFEBEBEE16E3E0FE0658F40E94132664
:10481000F6018483FFEFEF1AFF0A2FEFC21AD20AC4
:10482000E9CFF6011482F6CF80911701909118011B
:10483000892B09F493CF8C81A82EB12C8DE1A81679
:10484000B10408F08BCFEA80FB80FE24EF24FE2425
:104850006801AE0CBF1CC7018B5B9F4FEA14FB04C1
:1048600009F47CCFEBEBEE16E3E0FE0620F4F60154
:1048700064810E943126FFEFCF1ADF0A2FEFE21A80
:10488000F20AE9CF82E040CF8C81A82EB12C8DE1D5
:10489000A816B10408F062CFEA80FB80FE24EF2462
:1048A000FE246801A00EB11EC7018996CA14DB045C
:1048B00009F454CFE4E1EE16F10458F40E941326F3
:1048C000F6018483FFEFEF1AFF0A2FEFC21AD20A14
:1048D000EBCFF6011482F6CF8C81A82EB12C8DE19E
:1048E000A816B10408F03ACFEA80FB80FE24EF243A
:1048F000FE2494E1E916F10408F030CF24E130E021
:104900002E193F092A153B0508F428CF6801AE0C83
:10491000BF1CC7018996EA14FB0409F41FCFE4E128
:10492000EE16F10420F4F60164810E943126FFEFB7
:10493000CF1ADF0A2FEFE21AF20AEBCF88E0EDE39D
:10494000F1E0DE01919601900D928A95E1F780E207
:10495000F80111928A95E9F786E0898388E0FE01E3
:10496000B196DE01159601900D928A95E1F7F6CE8B
:1049700088EB89831A821B821C82F0CE8C81682F7F
:1049800070E0762F66278B81860F972F911D092E59
:10499000000CAA0BBB0B25E0880F991FAA1FBB1F99
:1049A0002A95D1F7AC01BD01405E5F4F6F4F7F4F3D
:1049B000481759076A077B0708F4D0CE883B910552
:1049C000A105B10508F0CACE493B51056105710545
:1049D00020F048EB50E060E070E0481B590BBC0150
:1049E00068537E4FC8010E94F625B8CEFB80EC804C
:1049F00040E06E2D8F2D0E94F40C98278927982770
:104A00009A83898341E06E2D8F2D0E94F40C9827A4
:104A1000892798279C838B83A1CE2E813F813227C3
:104A2000232732272115FCE73F0741F48091170126
:104A300090911801892B11F430E020E041E08D8144
:104A4000811101C040E06C818B810E94200C86CED8
:104A50004EE150E06FEF70E0CE0103960E940C260D
:104A6000809117018983EA8279CE81E090E090936A
:104A700022028093210282E390E090931F028093B0
:104A80001E020E9430056ACE809117018983EA8256
:104A900080911E0251CE40E250E06FEF70E0C801FD
:104AA0000E940C265BCE8B81811158CE80E2F801EA
:104AB00011928A95E9F752CE09BD19BD09B400FEDD
:104AC000FDCF8091D8008F7D8093D8008091E00049
:104AD00082608093E0008091E00081FDFCCF0E9425
:104AE0009C0E05CB822B892B09F49ECC9BCC88E2B3
:104AF00090E00E9413261B821C821D828E832ECE84
:104B00002B30310508F03FCC72CC2B30310508F04A
:104B1000F1CB24CCAA1BBB1B51E107C0AA1FBB1FB2
:104B2000A617B70710F0A61BB70B881F991F5A9539
:104B3000A9F780959095BC01CD01089597FB072EAC
:104B400016F4009407D077FD09D00E948A2507FC4F
:104B500005D03EF4909581959F4F0895709561958D
:104B60007F4F0895EE0FFF1F0590F491E02D0994FB
:104B700069279627692778278727782708952F920E
:104B80003F924F925F926F927F928F929F92AF92DD
:104B9000BF92CF92DF92EF92FF920F931F93CF932A
:104BA000DF93CDB7DEB7CA1BDB0B0FB6F894DEBFC1
:104BB0000FBECDBF09942A88398848885F846E84E7
:104BC0007D848C849B84AA84B984C884DF80EE8031
:104BD000FD800C811B81AA81B981CE0FD11D0FB63A
:104BE000F894DEBF0FBECDBFED010895FB01DC01DF
:104BF00002C005900D9241505040D8F70895FB0136
:104C0000DC0104C08D910190801921F44150504085
:104C1000C8F7881B990B0895DC0101C06D934150C2
:104C20005040E0F70895F999FECF92BD81BDF89A02
:104C3000992780B50895A8E1B0E042E050E00C94D7
:104C40005726DC01A40FB51F4150504048F0CB015E
:104C5000840F951F2E910E94322641505040D0F76C
:104C60000895262FF999FECF92BD81BDF89A01973C
:104C700000B4021639F01FBA20BD0FB6F894FA9AA4
:104C8000F99A0FBE08950396272F0E9432260E949C
:104C90003126252F0E943226242F0C94322601968D
:104CA000272F0E9432260C943126DC01CB01FC0117
:104CB000F999FECF06C0F2BDE1BDF89A319600B475
:104CC0000D9241505040B8F70895F894FFCFAC0FC3
:104CD000D40F8D11D40F8D11071028108D113111A3
:104CE0003E1194159815891590159C15A015A415BD
:104CF000001675160816D215D6150C16DA151016EC
:104D00001C16E6156E16EA152016EE1524164C161E
:104D1000F21528165316F8152E163616DE1514162B
:104D2000E2151816FC15321642165C166C16CC15D8
:104D300004167C16CC16CC1604170417CA17E417F1
:104D40002C172C17E9175418631863189E24B824DD
:104D5000BE24F6240D25282535254425AE234B25D4
:084D6000AE23AE23AE23532560
:104D68000364000105EC0BE50BDE0B048540000035
:104D780001064000000100010001000204050709C6
:104D88000B0C0E1011131517181A1C1D1F212324A4
:104D98002628292B2D2F3032343537393BF97CCE54
:104DA800C1856F0FBF818283E200E900EA00B50088
:104DB800B600B700CD008301CC008A0192019401AE
:104DC8002102230224022502260227022A02B30016
:104DD800B4006F0070009F01CB019F02A0023794BE
:104DE80096F6F700FF0100010000FFFF0000010038
:104DF80001FF00020302000001000101010101009E
:104E080001014422B684016201AC00A002B902D9B2
:024E1800020096
:00000001FF
