:100000000C942B020C9472020C9472020C947202E7
:100010000C9472020C9472020C9472020C94720290
:100020000C9472020C9472020C945F250C9433268B
:100030000C94CA1D0C9472020C9472020C947202FD
:100040000C9472020C9472020C9472020C94720260
:100050000C9472020C94151E0C9472020C94720291
:100060000C9472020C9472020C9472020C94720240
:100070000C9472020C9472020C9472020C94720230
:100080000C9472020C9472020C9472020C94720220
:100090000C9472020C9472020C9472020C94720210
:1000A0000C9472020C9472020C947202A800AC00C0
:1000B000AE00AD00005700047F3F1F64321464326D
:1000C00014783C1E1E140A052223252628292A2CD2
:1000D0002D2F3032333536383A3B3D3E4042434592
:1000E00047494A4C4E5051535557595A5C5E6062CD
:1000F000646668696B6D6F71737577797B7D7F81DD
:10010000838587898A8C8E90929496989A9C9E9FDC
:10011000A1A3A5A7A8AAACAEAFB1B3B4B6B8B9BBFA
:10012000BCBEBFC1C2C3C5C6C7C9CACBCCCDCED069
:10013000D1D2D2D3D4D5D6D7D7D8D9D9DADADBDB56
:10014000DBDCDCDCDCDCDDDDDDDDDCDCDCDCDCDBED
:10015000DBDBDADAD9D9D8D7D7D6D5D4D3D2D2D136
:10016000D0CECDCCCBCAC9C7C6C5C3C2C1BFBEBC29
:10017000BBB9B8B6B4B3B1AFAEACAAA8A7A5A3A19A
:100180009F9E9C9A98969492908E8C8A898785835C
:10019000817F7D7B79777573716F6D6B696866643C
:1001A00062605E5C5A5957555351504E4C4A49470C
:1001B000454342403E3D3B3A3836353332302F2DB1
:1001C0002C2A292826252322FFAA7F554000010139
:1001D0000101010101010102020202020202020206
:1001E00003030303030303030404040404040405D6
:1001F000050505050606060606070707070708089A
:100200000808090909090A0A0A0B0B0B0C0C0C0D4A
:100210000D0D0E0E0E0F0F0F1010111111121213E3
:10022000131414151516161717181819191A1A1B5E
:100230001B1C1D1D1E1E1F202021222223242425BD
:100240002626272829292A2B2C2D2D2E2F303132F6
:1002500032333435363738393A3B3C3D3E3F404106
:1002600042434445464748494A4C4D4E4F505153EE
:1002700054555658595A5B5D5E5F616264656668A5
:10028000696B6C6D6F7072737577787A7B7D7E8029
:1002900082838587888A8C8E8F91939596989A9C75
:1002A0009EA0A2A3A5A7A9ABADAFB1B3B5B7BABC89
:1002B000BEC0C2C4C6C9CBCDCFD1D4D6D8DBDDDF5A
:1002C000E2E4E7E9EBEEF0F3F5F8FAFDFF040330C2
:1002D00000000014036200690067004B004E004FED
:1002E0000042007600320000001E036C00650061D1
:1002F0000066006300750074007400650072006C95
:100300000061006200730000000403090409023B5D
:1003100000020100A0FA0904000001030101000924
:1003200021110100012240000705810308000A098C
:10033000040100010300000009211101000122BC99
:10034000000705820320000A1201100100000008C6
:10035000EBCE070001000102030105010902A10122
:1003600085020901A10005091901290515002501CA
:10037000950575018102950175038101050109301B
:1003800009311581257F9502750881060938158187
:10039000257F950175088106050C0A38021581250F
:1003A0007F950175088106C0C005010980A10185FE
:1003B0000319012AB700150126B7009501751081B0
:1003C00000C0050C0901A101850419012AA002152C
:1003D0000126A002950175108100C005010906A142
:1003E000018505050719E029E71500250195087520
:1003F0000181020507190029EF1500250195F07507
:1004000001810205081901290595057501910295DB
:100410000175039101C005010906A101050719E055
:1004200029E71500250195087501810295017508D8
:1004300081010507190029FF150026FF00950675A3
:100440000881000508190129059505750191029596
:100450000175039101C011241FBECFEFDAE0DEBFAA
:10046000CDBF04B603FE27C08091C8029091C90297
:10047000A091CA02B091CB028730904BA740B04BFD
:10048000D1F41092C8021092C9021092CA021092BE
:10049000CB0214BE84B7877F84BF0FB6F894A895AB
:1004A00080916000886180936000109260000FBEB0
:1004B000E0E0F8E3099511E0A0E0B1E0E0E8F1E563
:1004C00002C005900D92A83DB107D9F722E0A8ED32
:1004D000B1E001C01D92A83CB207E1F70E94902252
:1004E0000C9482280C9400000C94EF05FC01808190
:1004F000813031F48BEA0E94A2128BEA0C94F01244
:10050000823011F40C94720B833011F40C94570B5D
:100510000895811106C089EA611101C08AEA0C942C
:100520001F130895CF93DF939C013A9521153F4106
:1005300068F5EC01CC27D170DC01AA27B270AC01C0
:10054000442754709C012227387094FF11C080E129
:10055000CD2B09F480E0AB2B09F08062452B09F02C
:100560008064232B09F08068FB01DF91CF9109940F
:1005700081E0CD2B09F480E0AB2B09F08260452BA4
:1005800009F08460232B81F38860EECFDF91CF9157
:100590000895CF93DF93EC01805E9109089720F0D6
:1005A0006FEB75E1209711F462E373E1CE010E94D5
:1005B00092028C2FDF91CF910C94A212CF93DF93F4
:1005C000EC010E94F012CE01805E9109089720F0A4
:1005D00066EC75E1209711F469E373E1CE01DF91D8
:1005E000CF910C949202CF93DF93EC010E94C90249
:1005F000CE01DF91CF910C94DE0281E0089581E07D
:1006000008950C94FF0208950C9403031F93CF9355
:10061000DF9300D000D00F92CDB7DEB749835A8365
:100620006B833091FA0189819A8131111DC0662353
:10063000B9F02223A9F00E94D11A182F682F8981BE
:100640009A810E947A1A69817A81812F0F900F9086
:100650000F900F900F90DF91CF911F910C94E203B8
:100660000E94A81A182FEFCF0E94D11A69817A81AF
:10067000EDCFFC01262F40815181628173818481FD
:100680000C940603CF93DF93EC0160E00E943903E2
:10069000BE01DF91CF910C9404030E941B1C8111B9
:1006A00002C00E94B81C0E94150D0E947B0D0C9484
:1006B00074020E9422110E94240D0C94F105282F2F
:1006C0002F7041F0822F90E02A3010F44D9608955B
:1006D0000697089587E290E0089508950C946D03BD
:1006E00081E008950C947003CF93C82F0E946E038D
:1006F0008C2FCF910C94720308950E94E3150E94F1
:100700007C032FEF84E39CE0215080409040E1F790
:1007100000C000000C94391E0F931F93CF93DF93FA
:10072000EC0161E00E9439038C01BE010E9482103D
:10073000BE01C8010E9401038823B9F1BE01C801AE
:100740000E94C810882389F1BE01C8010E94F20DE1
:10075000882359F1BE01C8010E94940E882329F113
:10076000BE01C8010E94D50E8823F9F0BE01C80160
:100770000E94F80F8823C9F0BE01C8010E94640CD2
:10078000882399F08A81882339F001158CE51807B0
:1007900051F00E3D1C4579F0CE01DF91CF911F91B4
:1007A0000F910C94FD020E947D0380E0DF91CF91B8
:1007B0001F910F9108950E94B81CF7CF90E080E040
:1007C00008950895E62F272F280F3327331FC901D7
:1007D00025E0289FB001299F700D1124E60FF72F07
:1007E000F11DEE0FFF1FE455FF4F85919491089581
:1007F000FC01EE0FFF1FEA54FF4F8591949108957D
:10080000CF93DF930E94E2030E941505EC0181154E
:1008100020E5920708F042C0811530E4930708F004
:10082000BDC0883E910528F5803E910508F09DC029
:10083000883A910588F4853A910508F08FC0813097
:10084000910509F492C0009709F48FC0049708F04D
:100850008CC0D0E0C0E089C08F3B910508F489C00E
:10086000805C9109C03CD105A0F30E94F803EC0123
:100870007CC08115904250F4C11581E0D80708F082
:1008800074C0C03FD10528F3D0656FC0C11590E397
:10089000D90708F079C0CE019F70E7CF811525E513
:1008A000920758F5811534E5930708F0A6C0811525
:1008B00042E5940750F4C11581E5D80708F471C0EA
:1008C000DC2FCC27C16FD06A50C0982F9695969593
:1008D0009E0123703327C115D34508F07FC0C1E0C6
:1008E000D0E002C0CC0FDD1F2A95E2F720E2929FF4
:1008F000C0011124C82BD92B6FC0C11589E5D807B9
:10090000A8F4C11598E5D90708F07CC0C11526E503
:10091000D20708F09ECF8C2F0E94AC05C82FD0E0E4
:10092000DC2FCC27CC27DF71D0621FC0C1153AE580
:10093000D30708F46CC0CE0190568115904208F0A0
:1009400088CF8D2F8F710E94AC0590E0982F88275B
:1009500088279F719C012C2BE901E6CFC55AD0E076
:10096000C659DE4FC881D0E0D064CE01DF91CF916F
:100970000895C85AD0E0CC0FDD1FC45CDE4F09904B
:10098000D881C02DD464F1CFCE019927D3FF03C005
:10099000EC01D86CEACFEC01D06CE7CFDF70D06A05
:1009A000E4CFCE01E4E096958795EA95E1F7837070
:1009B0002C2F26952695237090E2299F90011124D3
:1009C000382B8C2F8370C1E0D0E002C0CC0FDD1F2C
:1009D0008A95E2F7C22BD32BDC68C7CFC1E0D0E009
:1009E00002C0CC0FDD1F2A95E2F730E2939FC001D1
:1009F0001124C82BD92BDA68B8CFD82FCC27C46FD5
:100A0000D06AB3CFDC2FCC27C06FD06AAECF8C2F8B
:100A10008F700E94AC0534E0D695C7953A95E1F702
:100A2000CF709C2FEC01D069A0CF82389105B1F135
:100A3000B0F48133910509F475C048F48932910509
:100A400009F469C08A32910509F473C008958533A9
:100A5000910509F459C08933910501F10895833E48
:100A60009105A9F138F4803E9105F9F0823E910597
:100A700049F10895863E9105A9F1873E9105C9F196
:100A8000843E910519F52091BA0221FF1FC0809183
:100A9000B90284FD14C087EE90E008952091B90258
:100AA0002370A1F080EE90E008952091B90220FD1E
:100AB00047C03091BA0230FF09C024FF44C090E023
:100AC00080E004C02091B90222FDF7CF0895209163
:100AD000B90222FD3BC03091BA0230FDE3CF24FFC2
:100AE000F5CFEDCF2091B90223FFF0CF24FDE7CF62
:100AF000D2CF2091B90223FD2CC03091BA0231FF30
:100B0000EECF84EE90E008952091B90225FFDECF6C
:100B100089E290E008952091B90225FFD7CF85E3BF
:100B200090E008952091B90226FFD0CF8AE290E0AC
:100B300008952091B90226FFC9CF81E390E008957E
:100B400089E390E0089583EE90E0089582EE90E0CE
:100B5000089586EE90E008959091B90292FF06C044
:100B6000282F28712830F9F4877F846093FF06C00E
:100B7000282F28712831F1F4877E84612091BA02F0
:100B800020FF06C0382F38713830D9F4877F816054
:100B900021FF06C0282F28712831D1F4877E81617A
:100BA00094FD877E0895282F24712430F9F68B7FD9
:100BB0008860DCCF282F2471243101F78B7E886177
:100BC000DDCF382F3171313019F78E7F8860E0CF5B
:100BD000282F2171213121F78E7E8861E1CF089580
:100BE00008950C94F005E82FF0E0E756FD4F808162
:100BF00008950895CF93ADE6B1E042E751E061E09A
:100C000070E08D918F3F91F0E82FE295EF70F0E06A
:100C1000C1A18F709B0101C0220F8A95EAF7922F24
:100C200090959C2391A382A1822B82A34A175B07F4
:100C300041F7109298021092990281E00E94680692
:100C4000CF910C944D03CF93DF93D09198021092E3
:100C50009802ADE6B1E050E040E061E070E02D9137
:100C60002F3FD9F0E22FE295EF70F0E080A190E005
:100C70002F7002C0959587952A95E2F780FD26C0D2
:100C8000CB01042E02C0880F991F0A94E2F79C0141
:100C900080919802822B809398024F5F5F4F45307E
:100CA0005105E9F6C1E0809198028D1301C0C0E0C2
:100CB0002C2F41E069E972E088E992E00E94690620
:100CC0000E9459038C2FDF91CF91089520E0E0CF4F
:100CD0000895FF920F931F93CF93DF93F82E092F60
:100CE000162FD72FC42F222349F081E08093DA01F9
:100CF0000E94FA1D9093D9018093D8018091DA0166
:100D00008823A1F08091D8019091D9010E94061EFC
:100D1000069760F0EF2DF02FA12FBD2FCE0FDF2F04
:100D2000D11DEC17FD0741F41092DA01DF91CF914C
:100D30001F910F91FF90089581918D93F2CFAF9203
:100D4000BF92CF92DF92FF920F931F93CF93DF93C7
:100D5000362F472FE82FF0E0E353FE4F71110DC0FF
:100D60006491762F862FDF91CF911F910F91FF9085
:100D7000DF90CF90BF90AF900895C72FD0E024911F
:100D8000F22E022F10E056E0659FC0011124EFEF14
:100D9000F0E0BF010E94F327832F90E0880F991F96
:100DA00035E5369FD001379FB00D11248A1B9B0B70
:100DB000982F990F980F6F01CC1ADD0AC09ED001B1
:100DC000C19EB00DD09EB00D11248B2F949FA00119
:100DD0001124452F55276F01C41AD50AC09EA001C2
:100DE000C19E500DD09E500D11245F01A91AB1086B
:100DF000AC9E6001AD9ED00CBC9ED00C1124CD2CBD
:100E0000DD24EC19FD09E09FE001E19FD00DF09F8A
:100E1000D00D1124ED2F62307105A1F048F4611559
:100E2000710569F06130710589F0EB2F852F07C0DE
:100E30006430710571F088F066307105B1F76E2F7E
:100E4000722F91CFE22F2B2F8D2FF9CFE22F252F4D
:100E5000F6CFEB2F822F2D2FF2CF2B2F8F2DE52FBB
:100E6000EECF0895CF93DF93762FE901682F842F7B
:100E70000E949F06798368838A83DF91CF910895CA
:100E800080919A02982F9E7F29F4817082608093CE
:100E90009A0208958A34E8F381708864F8CF88E074
:100EA00090E00C944228CF92DF92EF92FF926B0178
:100EB0007C010E944007B701A60188E090E0FF9006
:100EC000EF90DF90CF900C946028EAE9F2E083E0A5
:100ED000808311828FEF828383831482608171818A
:100EE000828193810C94530780919A0280FF02C003
:100EF0008695089580E0089580919E02833018F4CD
:100F00008F5F80939E0260919A0270919B02809104
:100F10009C0290919D020C94530780919E0288231D
:100F200019F0815080939E0260919A0270919B0209
:100F300080919C0290919D020C94530760911A013C
:100F400070E080919A0280FF0AC08091DF0123E067
:100F5000829FC001112481569D4F0C94100D8091E9
:100F6000DE019091190123E0829FF0011124E156E6
:100F7000FD4F891750F71182108212828F5F3396CE
:100F8000F8CF90919A0290FF14C09091DE012091C9
:100F9000190133E0939FF0011124E156FD4F9217A0
:100FA00010F00C949E078183608342839F5F339689
:100FB000F6CF0895CF93DF9300D00F92CDB7DEB771
:100FC00090919A0290FF0AC09E012F5F3F4F0E94AE
:100FD00032074B8169818A810E94C1070F900F906F
:100FE0000F90DF91CF910895CF93DF93EC01EC81C7
:100FF000F0E0E853FF4F4491EAE9F2E06281818139
:101000000E94DA078C818F5F8C83DF91CF910895E6
:10101000CF93DF93EC01EAE9F2E0438162818C81B6
:101020000E94DA078C818F5F8C83DF91CF910895C6
:101030000F931F93CF93DF9300D00F92CDB7DEB7FE
:101040008C018091DB0181110AC09E012F5F3F4F0F
:101050004FEF6FEF0E9432078A818093DB01F80126
:101060006481613069F08091DB0140E0662361F0CA
:1010700040E0623011F44091DB0180E060E004C0A8
:101080006091DB0140E080E00E94C107F8018481AB
:1010900090E0019663E070E00E94072884830F903F
:1010A0000F900F90DF91CF911F910F910895AF9204
:1010B000BF92CF92DF92EF92FF920F931F93CF9345
:1010C000DF9300D00F92CDB7DEB7182FF62E042F86
:1010D000E22E90919A0290FF29C0E92FE695AE2F5B
:1010E000B0E0AE58BE4F8C918093E7019E7F923066
:1010F00059F59E012F5F3F4F812F0E9432074B8190
:1011000069818A810E94C10710939B02F0929C0220
:1011100000939D02EE2051F060919A0270919B0223
:1011200080919C0290919D020E9453070F900F9016
:101130000F90DF91CF911F910F91FF90EF90DF9073
:10114000CF90BF90AF900895823019F400919D0226
:10115000DBCF863019F410919B02D6CF8930D9F3BA
:10116000893191F6E9518E2F8170D82EE695F0E005
:10117000E853FE4FA590B490C12CBB246091180198
:10118000C61618F00E949E07BFCF2C2D30E0A29EFD
:10119000C001A39E900DB29E900D112470E00E949C
:1011A000F327812FD11013C0860F4091DE01420F2B
:1011B000532F511D9A01220F331F240F351F215623
:1011C0003D4F402F6F2D0E943207C394D7CF861B0F
:1011D000ECCFEAE9F2E09181282F4381628188E037
:1011E000890F0C94570881E00C94E908EAE9F2E0D1
:1011F0009181282F4381628188EF890F0C945708D1
:1012000081E00C94F608EAE9F2E0628121E1620FE4
:1012100008F46FEF282F438181810C94570881E0F7
:101220000C940309EAE9F2E0628121E1621B08F40F
:1012300060E0282F438181810C94570881E00C9451
:101240001209EAE9F2E0438121E1420F08F44FEF8D
:10125000282F628181810C94570881E00C94210928
:10126000EAE9F2E0438121E1421B08F440E0282F43
:10127000628181810C94570881E00C94300920E050
:101280000C945708EF92FF921F93CF93DF93EC01DA
:1012900010E0EE24EA94F12C60911801161770F01A
:1012A0000E949E079A818C8190FF27C08F5F8C835C
:1012B000DF91CF911F91FF90EF9008952091DE0173
:1012C000422F410F5527551FCA019A01220F331F84
:1012D000280F391F21563D4F70E0C7010E94072893
:1012E000962F8C8140919D0260919C02199F800DE8
:1012F00011240E9432071F5FCFCF8150D8CFAF9209
:10130000BF92CF92DF92EF92FF920F931F93CF93F2
:10131000DF93FC0182810FEF80FF01E010E045E0E8
:10132000A42E809118011817C8F00E949E07809182
:10133000DD01013009F055C0811102C08091180112
:1013400081508093DD01DF91CF911F910F91FF902C
:10135000EF90DF90CF90BF90AF900895C091DE01E5
:10136000C12ED12CCC0DDD2DD11DCE01880F991FA2
:10137000C80FD91FC156DD4F198218821A8234E076
:10138000E32EF12CB12C8091DD018B0D86301CF108
:101390006A2D0E94E527892F082E000C990BC8168C
:1013A000D90691F480919D028E9DA0018F9D500DD4
:1013B000112455954795559547959E0160919C023E
:1013C00080919B020E943207B00EF1E0EF1AF10803
:1013D000D1F61F5FA6CF87FFDFCF90911801890F4D
:1013E000DBCF90E001966091180170E00E94072821
:1013F000A8CF0F931F93CF93DF938091DE0190913D
:10140000190123E0829FF0011124E156FD4F891755
:1014100040F1C0E0D3E060911801C61740F10E948E
:101420009E07209116018091DC01820F8093DC01E0
:1014300090911701920F90931701191654F4082EEA
:10144000000C990B409118014150550B84179507DA
:101450001CF0219520931601DF91CF911F910F91E0
:1014600008951182108212828F5F3396D0CF0C2F95
:1014700010E070E0C8010E9407282091DE01820F71
:10148000482F50E02091DC01022E000C330B021794
:101490001307BCF020911701022E000C330B20170C
:1014A00031077CF08D9F9001112421563D4F4091D2
:1014B0009D0260919C0280919B020E943207CF5F47
:1014C000AACFFA01EE0FFF1FE40FF51FE156FD4F03
:1014D000118210821282F3CF0F931F93CF93DF9369
:1014E0008C01FC01848195810196817099279583F7
:1014F0008483C0E0D5E580911801C81730F0DF91F2
:10150000CF911F910F910C949E072091DE01422FE5
:101510004C0F5527551FCA019A01220F331F280F60
:10152000391F21563D4F8C2F8695F80144815581F6
:10153000840F952F911D817040919D0260919C02B6
:101540008D9F802D11240E943207CF5FD4CF0F933F
:101550001F93CF93DF93EC0110E000E0909118010E
:101560009017110609F06CF40E949E078C8190E0A0
:101570000196817099278C83DF91CF911F910F91F4
:1015800008952091DE01A801420F511D9A01220FFA
:10159000331F240F351F21563D4F4C8160919C0213
:1015A00080919B0296959017110651F04CF04423C0
:1015B00049F040919D020E9432070F5F1F4FCECF2E
:1015C0004423B9F340E0F7CFEAE9F2E080818E7F6F
:1015D000808360817181828193810E945307109280
:1015E000E8012FEF80E792E0215080409040E1F742
:1015F00000C000000C949E0760919A02669570E00E
:101600004BE050E08BE191E00E942D28892B19F4EA
:1016100081E08093E8010E94FA1D9093E10180939C
:10162000E001089590919A0290FF35C09170811168
:1016300028C0926090939A02662351F060919A02BA
:1016400070919B0280919C0290919D020E94530791
:1016500060919A02669570E04BE050E08BE191E07A
:101660000E942D28892BA1F01092E80181E080933F
:10167000E30140919D0260919C0280919B020C9439
:101680003F09853210F09864D5CF880F982BD2CFC0
:101690000E94FC0AEBCF0895682F90919A029695CC
:1016A00081E0890F853208F081E00C94120B81E013
:1016B0000C944C0B682F90919A0296958FEF890F9E
:1016C00009F484E20C94120B81E00C945A0B61E053
:1016D0000C94120BEAE9F2E08081816080838695A8
:1016E0000C94670B80919A0280FD0C94E40A0C9490
:1016F0006A0B60E00C94120B8091E60181112EC000
:101700000E941B1C811104C00E94B81C0E94650726
:101710000E944F0760939A0270939B0280939C02F1
:1017200090939D026E7F61F40E9465070E944F07AF
:1017300060939A0270939B0280939C0290939D0207
:101740000E9440071092E80180919A0280FF03C036
:1017500086950E94790B81E08093E60108950F93AE
:101760001F93CF93DF938091E801882309F48DC004
:101770008091E701E0919A02E695E81BE093E2018F
:101780008230C9F5F0E0EC53FF4FE491CE2FD0E06A
:1017900004EF17E08091E301882389F01092E301C0
:1017A0000E94FA1D9E0120953095820F931F909301
:1017B000E1018093E0011092E5011092E401809133
:1017C000E0019091E1010E94061E8C179D0708F42C
:1017D0005CC0E091E001F091E101CE0FDF1FD093FA
:1017E000E101C093E00180EE91E0F801DF91CF913B
:1017F0001F910F910994863049F4F0E0EF53FF4FA9
:10180000E491CE2FD0E008E018E0C4CF893051F445
:10181000E695F0E0E254FF4FE491CE2FD0E002E4F1
:1018200019E0B8CF8F3051F4E695F0E0E554FF4F62
:10183000E491CE2FD0E00FE719E0ACCF853149F429
:10184000F0E0E854FF4FE491CE2FD0E009EF19E02B
:10185000A1CFC8EED3E00CE61AE0883109F49ACFA4
:10186000833239F4E6EBF0E0C591D49108E118E059
:1018700091CFC4EFD1E007EA1AE0843209F48ACFAD
:10188000C0EDD7E001E317E085CFDF91CF911F9145
:101890000F910895FA01811101C0FB010994CF93C2
:1018A000DF93C82FD62F0E9474078C1740F00E9438
:1018B00074078D1720F4DF91CF910C94570B8C2F68
:1018C000DF91CF910C94670B0F931F93CF938C01F3
:1018D000FB01C281CC2309F465C00E94661B8272A1
:1018E000F801E25CFC45E431F10538F4EC57F74DC2
:1018F0000C941B280E94720BC0E08C2FCF911F917B
:101900000F91089544E65BE067E57BE00E944A0C96
:10191000F3CF47E55BE064E67BE0F8CF40E059E0D9
:1019200063EF78E0F3CF43EF58E060E079E0EECF8B
:101930004EE159E06FE079E0E9CF4FE059E06EE128
:1019400079E0E4CF4CE359E06DE279E0DFCF4DE29E
:1019500059E06CE379E0DACF4DE857E06CE777E0E7
:10196000D5CF4CE757E06DE877E0D0CF81E00E941B
:10197000670BC2CF65E082E00E944F0CBDCF68E0EC
:1019800086E0FACF6EE089E0F7CF64E18FE0F4CF34
:1019900067E185E1F1CF88E1EACF62E289E1ECCF4E
:1019A00083E2E5CFC1E0A9CF27B1342F3F70A1E09A
:1019B000B0E001C0AA0F3A95EAF72A2B27B9429561
:1019C0004F70E42FF0E022A14A2F4095422332A12C
:1019D000A32B5FB7F8949B01220F331F260F371FED
:1019E000280F391F2817390741F45FBF87EC90E0B3
:1019F0000197F1F700C000000895FC016191CF014B
:101A000078E0A8B9000000C067FF48B9660F000081
:101A100000C000C000C048B900C07A9591F7E2CF7D
:101A200047E60C94D40C0C9489025098589A52981A
:101A30005A9A89B181704A9905C090E0892B8093A8
:101A4000EB01089592E0FACFE091EB01EE0FEE0F7B
:101A5000E093EB0149B1842F817049B142FB222709
:101A600020F942FF02C022E030E0822BE82BE09315
:101A7000EB01EF70F0E0E956FE4F80819091EA01B2
:101A8000890F8093EA0182304CF08091E9018F5FE9
:101A90008093E90160E080E00E94130D8091EA01EB
:101AA0008F3F4CF48091E90181508093E90161E01E
:101AB00080E00E94130D8091EA01817887FF03C0C6
:101AC00081508E6F8F5F8093EA010895CF93DF93EB
:101AD000EC0197FF0CC0FB018281882341F00E943A
:101AE000910DCE019F770E94D50D0E94BD0D81E022
:101AF000DF91CF9108958CE090E00E943A2890E029
:101B0000B0E0A0E08093AE029093AF02A093B00249
:101B1000B093B10208956091AE028CE090E00C9415
:101B20004E280E94661B8093B2020E94791B80910E
:101B3000AE02813089F0882359F0823091F08430F0
:101B4000B9F08FE39CE90197F1F700C00000089518
:101B500082EE0E94A212F5CF88E193E00E94F30288
:101B6000F0CF82EE0E94A21287E50E941F13E9CFF8
:101B700086EE0E941F1388E1F8CF8091AE0281307B
:101B800071F0882341F0823031F0843061F080912F
:101B9000B2020C94761B82EE0E94F012F8CF8CE217
:101BA0000E941F13F4CF88E2FBCF0F931F93CF93B4
:101BB000DF938C01CCE0D0E0C8010C2E02C09695DA
:101BC00087950A94E2F78F700E945F030E941F13AB
:101BD0002497CC3F8FEFD80779F7DF91CF911F91F2
:101BE0000F9108950F931F93CF93DF93EC018B0117
:101BF000FB018281882371F0C33EFCE5DF0719F108
:101C000088F4C13EECE5DE07C9F081E0C23EFCE5A8
:101C1000DF0789F0B801CE01DF91CF911F910F91BD
:101C20000C94660DC43E8CE5D80779F084E0C53E7F
:101C3000ECE5DE0779F78093AE0202C01092AE02A7
:101C40000E948B0DE7CF82E0F6CF83E0F4CF0F93B5
:101C50001F93CF93DF93C62FD42F022FFC018281D5
:101C60008823C9F06093EE010E94FA1D9093ED0164
:101C70008093EC0180E28C0F883008F050C0C77070
:101C800081E001C0880FCA95EAF7DF91CF911F91DB
:101C90000F910C9432131091EE01161335C0809100
:101CA000EC019091ED010E94061E8C32914060F58E
:101CB000C0E2CD0F1D17B9F080E2810F883040F4EB
:101CC000177081E001C0880F1A95EAF70E94391356
:101CD000C83048F481E09D2F977001C0880F9A9515
:101CE000EAF70E943213802F0E941F13C830B8F405
:101CF000D77081E001C0880FDA95EAF7DF91CF91C4
:101D00001F910F910C94391380E28C0F883038F4B6
:101D1000C77081E001C0880FCA95EAF7EFCFDF9165
:101D2000CF911F910F9108959C01CB01233F4CE56A
:101D3000340731F190F4283DFCE53F07E9F0293DF7
:101D40004CE5340769F1273D3C4579F426E241EE44
:101D500061EE0E94270E80E00895253FFCE53F07D5
:101D6000B9F090F0263F3C45B9F0FC018281882310
:101D7000D1F01092EE01089527E245EE65EEE9CF2D
:101D800026E241EE60EEE5CF27E245EE64EEE1CFDC
:101D900026E241EE62EEDDCF27E245EE66EED9CFD8
:101DA00028E241E0EBCF81E00895CF93DF93EC018F
:101DB000FB018281882309F419C1C230FCE5DF07E9
:101DC000C0F1C6319CE5D90730F09E012A5F3C4541
:101DD0002930310570F50E942E1C9093BA02809331
:101DE000B902C031ECE5DE0709F4CFC008F05BC0F2
:101DF000C8308CE5D80709F4B6C088F5C430ECE5E6
:101E0000DE0709F4A8C0C0F4C2308CE5D80709F495
:101E10009CC08091B9028260C330DC4509F498C04F
:101E20008091B9029091BA020E943C1C0E94E31575
:101E300080E0DF91CF9108958091B9028061C63032
:101E4000ECE5DE0709F484C08091B9028860C730F0
:101E5000DC4508F47DC08091B902806279C0CC3045
:101E60008CE5D80709F489C070F48091B9028C60C0
:101E7000CA30ECE5DE0709F46BC008F478C0809145
:101E8000B9028E7F65C0CE308CE5D80709F479C0E1
:101E90008091B9028B7FCF30DC4508F459C0809126
:101EA000B9028F7E55C0CB3FECE5DE0709F457C081
:101EB00030F5C3318CE5D80709F46FC078F4C1312F
:101EC000ECE5DE0709F465C0C231DC4509F0A8CFB6
:101ED0000E94E3158091B9028F773AC0C5318CE535
:101EE000D80709F462C008F476C08091BA02816014
:101EF000CA3FDC4509F094CF8093BA0291CFCF3F1F
:101F0000FCE5DF0709F44DC088F48091BA028D7FAB
:101F1000CD3F9CE5D90781F38091BA028E7FCE3FF9
:101F2000DC4550F38091BA028360E6CFC130FDE515
:101F3000DF0709F459C008F444C080E0C230DD4531
:101F400009F06ECF0E94BA1C6BCF8091B9028160FC
:101F50008093B90265CF8091B9028460F9CF8091F6
:101F6000BA028260C9CF8091B9028064F1CF0E9429
:101F7000E3158091B9028068EBCF8091B9028D7F23
:101F8000E7CF8091B902877FE3CF8091B9028F7D3F
:101F9000DFCF8091B9028F7BDBCF8091B902837F45
:101FA000D7CF8091BA028C7FA7CF8091B90282FBF4
:101FB000992790F921E0922790FB82F990FB83F911
:101FC000C7CF8091BA02982F909591708E7F892B00
:101FD00090FB81F991CF0E94E3159091B902892F6E
:101FE00097FB87F98058B4CF81E0ACCF81E021CF57
:101FF000CF93DF93EB0186319C4511F50E94661B60
:102000009A81992399F08A7A91E009F490E090936B
:10201000EF01811109C089E20E94411B0E94B81B97
:1020200080E0DF91CF91089585E3F6CF8091EF01B5
:10203000811104C089E20E94481BF0CF85E3FBCFE9
:1020400081E0EFCFCF93DF93EC0181E0898B8F812B
:102050000E94691B88850E947F1B0E94B81BEA8131
:10206000FB81309739F06C897D89CE010696DF912E
:10207000CF910994DF91CF910895EF92FF920F9342
:102080001F93CF93DF93EC018A85811134C0EB80DD
:10209000FC8087E5F81A26E12E9DC0012F9D900D4A
:1020A0001124DC01A050BF4F1496ED91FC911597BF
:1020B000309731F054966D917C918A5F9E4F0995CF
:1020C00086E18E9D80018F9D100D112400501F4FC1
:1020D000F80187810E946F1BF80180850E94851B93
:1020E0000E94B81B188219861B861E821D821092C0
:1020F000F1011092F001DF91CF911F910F91FF90AC
:10210000EF900895DF92EF92FF920F931F93CF937A
:10211000DF937C01FB018281882391F0809126016D
:102120008F3F71F0C0E0D1E010E000E0DD24D394F7
:1021300080912601082E000C990B8017910744F41A
:10214000DF91CF911F910F91FF90EF90DF90089555
:102150008E818823C9F089859A858E159F0539F46B
:102160008091F0019091F1018E159F0569F0DF8655
:10217000FC86EB868989811103C0CE010E94221062
:10218000CE0106960E943D100F5F1F4F6696D0CF7E
:10219000EF92FF920F931F93CF93DF937C0197559C
:1021A0008F3F910509F0D8F520912601022E000CF1
:1021B000330B2817390714F480932601FB01228181
:1021C00036E1389F8001399F100D1124E801C0507D
:1021D000DF4F288B92818E81992349F1FA86E98617
:1021E0008F5F8E830E94FA1D9E878D870E949F1BA2
:1021F0008F830E94661B88870E947C1B9885892B91
:102200008887E881F981309731F06C897D89C80130
:102210008A5F9E4F0995F092F101E092F00181E012
:10222000DF91CF911F910F91FF90EF900895882338
:10223000B1F38989882399F3C8018A5F9E4F0E9470
:102240003D10EDCFEF92FF920F931F93CF93DF934B
:102250008091260110E006E18F3FC9F5DF91CF9113
:102260001F910F91FF90EF900895029FF001039F3F
:10227000F00D1124E050FF4FE288F388E114F104DF
:1022800021F48CE2E82EFF24F394029FE001039FE7
:10229000D00D1124C050DF4F8E818823B9F08D8579
:1022A0009E850E94061EE816F90680F4109F7001B4
:1022B00011248989811105C0C70180509F4F0E9458
:1022C0002210C7018A5F9E4F0E943D101F5F212F81
:1022D00030E080912601082E000C990B821793079D
:1022E00024F6BCCF9093F7018093F6010895E09116
:1022F000F601F091F701309721F00190F081E02D87
:10230000099480E00895E091F601F091F70130978B
:1023100099F020913B01222359F02091B90227FF27
:1023200007C0DC012C9111962C93119725E02C937A
:102330000280F381E02D09940895E091F601F09177
:10234000F701309739F022E0DC012C930480F5810D
:10235000E02D099408952091F4013091F50128179A
:10236000390771F09093F5018093F401E091F60143
:10237000F091F701309721F00680F781E02D099464
:1023800008952091F2013091F3012817390771F077
:102390009093F3018093F201E091F601F091F7013F
:1023A000309721F00084F185E02D0994089585B7D8
:1023B000806885BF85B7806885BF089508950895B2
:1023C0000C94DE1108950C94E2110E94D7110E9422
:1023D000DF110C94E01181E008950E94F11D0E942C
:1023E000FA050E944A1E0E947C0B0C94E311FF9296
:1023F0000F931F93CF93DF93CDB7DEB72A970FB616
:10240000F894DEBF0FBECDBF0E9423060E94EB11E1
:10241000811131C08FEF89838A831B820E94FA1D4C
:102420008160782F9D838C8349815A816B818D8156
:102430000E9473120E94AF0B0E94D71F0E94771157
:102440009091F801891709F442C00E947711809396
:10245000F8012A960FB6F894DEBF0FBECDBFDF910C
:10246000CF911F910F91FF900C9474038F5F000F19
:10247000853089F4CFCF80E00E94F305182FF090CB
:10248000F901F81639F28091650281FD0E94F90583
:1024900080E001E0F1269F2D902341F38E831F827F
:1024A000102381E009F480E088870E94FA1D816092
:1024B000782F9A8789874E815F8168858A850E94F7
:1024C00073128091F90108270093F901B3CF2A967E
:1024D0000FB6F894DEBF0FBECDBFDF91CF911F9135
:1024E0000F91FF900895CF93DF93CDB7DEB72B9771
:1024F0000FB6F894DEBF0FBECDBF4F8358876987F4
:102500007A878B871E821D8285E0FE013796DE0169
:10251000119601900D928A95E1F749815A816B815C
:102520007C818D819E812B960FB6F894DEBF0FBE05
:10253000CDBFDF91CF910C945A18FC01808191811D
:102540000C94131BCF93C82F882309F447C08CEF3A
:102550008C0F813AA0F46C2F809127019091280173
:102560000E94D31C882329F08C2F0E94481B0E94B4
:10257000B81B8C2F0E94411BCF910C94B81B80E29A
:102580008C0F883048F4C77081E001C0880FCA956D
:10259000EAF70E94691BF0CFEBE5EC0FE33040F463
:1025A000F0E0EB52FE4F808190E0CF910C94AB11A4
:1025B000E8E5EC0FE73150F4F0E0EE0FFF1FE955CE
:1025C000FE4F80819181CF910C94C111C03F30F0BA
:1025D0008C2F0E94E51ECF910C94CC1FCF910895B3
:1025E000882361F19CEF980F913A20F40E94481BD8
:1025F0000C94B81B90E2980F983050F4877091E0DB
:1026000001C0990F8A95EAF7892F0E946F1BF0CFBE
:102610009BE5980F933020F490E080E00C94AB1190
:1026200098E5980F973120F490E080E00C94C11168
:10263000803F20F00E944D1F0C94CC1F0895CF9333
:10264000C82F0E94A212C93349F42FEF87EE93E0FE
:10265000215080409040E1F700C000008C2FCF91C6
:102660000C94F012882321F00E94691B0C94B81B73
:102670000895882321F00E946F1B0C94B81B0895C5
:10268000BF92CF92DF92EF92FF920F931F93CF935F
:10269000DF936C01D62FC72FFC01058102950F70C7
:1026A000128111110E948C1B0E945F1BE82E88234F
:1026B00071F01123B1F080E28D0F883090F082E04C
:1026C0000E94031C0E945F1B91E0E82EE926BC2EAD
:1026D000B2949FE0B922EB2DF0E0E856F74D0C9450
:1026E0001B28E12CF4CF0C2F0F70C07F11F0029546
:1026F000007F1123A9F0002359F080E28D0F88306C
:1027000010F0D11109C0802F0E94691B0E94B81BD4
:102710008D2F0E94A21214C0802F0E947F1BF6CF23
:102720008D2F0E94F012002359F080E28D0F883027
:1027300010F0D1112CC0802F0E946F1B0E94B81B7B
:102740002B2D2850330B2430310520F40E947711B3
:102750000E947403EE2009F4D5C10E945B1B80FD2A
:10276000D1C1F60112820E94551B0E94DE19C601DA
:102770000E94A3150E94551BDF91CF911F910F91CD
:10278000FF90EF90DF90CF90BF900C94FF19802FB7
:102790000E94851BD3CFFC2FFF70FF2EC07FC0325D
:1027A00019F0F29480EFF822DD2369F0D13049F17D
:1027B000112391F1002351F1F601858180FFA8CF0B
:1027C0008F70858323C0112381F0011106C00E9400
:1027D0009F1B8F290E943213B3CF0130C1F70E9493
:1027E0009F1B8F290E94A51BABCF011106C00E9421
:1027F000AE1B8F2D0E943913A3CF013009F4A0CF57
:10280000F6CF112329F0063008F09ACF8F2DE2CFB2
:10281000053008F095CFEDCF002359F3D93349F4B3
:10282000FFEF27EE33E0F15020403040E1F700C0E9
:1028300000008D2F0E94F01283CF8C2F86958695F5
:10284000837069F0813009F07BCF8D2F9C2F9370BE
:10285000111102C090E080E00E94C11171CF8D2F54
:102860009C2F9370111102C090E080E00E94AB1188
:1028700067CF112309F1D53F99F0D63FB9F0D43F86
:1028800049F48091B3029091B40281609093B402B4
:102890008093B3028D2F0E94E51E0E94CC1F50CF63
:1028A0008091B3029091B4028260F0CF8091B30224
:1028B0009091B4028460EACFD53F89F0D63FA9F069
:1028C000D43F49F48091B3029091B4028E7F9093EB
:1028D000B4028093B3028D2F0E944D1FDECF8091F2
:1028E000B3029091B4028D7FF2CF8091B3029091A8
:1028F000B4028B7FECCF8C2F837009F041C0111193
:102900001FCF4D2F429546954770440F440F0D2F12
:102910000F7010E030E020E0042E04C0000F111F03
:10292000221F331F0A94D2F760E070E0CB01D4FF7E
:102930000FC06FE070E080E090E004C0660F771F8A
:10294000881F991F4A95D2F760957095809590954C
:10295000C695C695C370602B712B822B932BC2300A
:1029600049F058F4C13019F00E949019E9CE0E9444
:102970007E19E6CE0E94A219E3CE0E947C19E0CE19
:102980008695112311F08C2F8170882309F4D8CEFD
:102990004D2F429546954770440F440F0D2F0F70F1
:1029A00010E030E020E0042E04C0000F111F221FB1
:1029B000331F0A94D2F760E070E0CB01D4FF0FC060
:1029C0006FE070E080E090E004C0660F771F881F22
:1029D000991F4A95D2F76095709580959095C69508
:1029E000C695C370602B712B822B932BC23049F09C
:1029F00058F4C13019F00E94551AA2CE0E94431A11
:102A00009FCE0E94671A9CCE0E94B81999CECF70B3
:102A1000112329F08C2F0E94DE198D2FDBCE8D2FF4
:102A20000E9439138C2F0E94FF198ACED23F89F160
:102A300060F4D03FC9F0D13F29F1112309F442C01D
:102A4000011166CE8C2F8F7121C0D33F39F1D43F55
:102A5000A1F7112369F1CF718C2F0E94DE1963E079
:102A60008C2F0E94EE1B6CCE112341F0053008F034
:102A700067CE8C2F8F710E94221A62CE063008F02A
:102A80005FCEF7CF8C2F8F71112369F20E94DE1970
:102A900057CE8C2F8F711123C9F3C5CF112329F085
:102AA0008C2F8F710E94C9194BCE0E94C41948CE39
:102AB00081E00E94031C023008F442CE82E00E94B2
:102AC000031C3ECE002359F0D93309F0B2CE8FEF6C
:102AD00097EEE3E081509040E040E1F7A8CE8C2FE4
:102AE0008F71A1CF4C2F4F706D2FC6010E94DE0356
:102AF0000E94F41825CE4C2F4F706D2FC6010E94F6
:102B0000E1031ECEDF91CF911F910F91FF90EF90C7
:102B1000DF90CF90BF9008950F931F93CF93DF93D3
:102B2000EC01688179818A810E941D1B8C010E94C1
:102B3000791A0E947B19B801CE01DF91CF911F91C4
:102B40000F910C944013CF93DF93EC018B819C8108
:102B5000892B29F08881998189238F3F19F4DF918E
:102B6000CF910895CE010E948C038823C1F3CE013A
:102B70000E948C15CE01DF91CF910C9442038823E3
:102B800021F00E947F1B0C94B81B0895882321F02C
:102B90000E94851B0C94B81B08950E948C1B0E94F8
:102BA0009C1B0E94B81B0E94F1200E94CC1F90E049
:102BB00080E00E94AB1190E080E00C94C1110E9473
:102BC0004F1B0C94CD150E94791B0C94DF15E92F37
:102BD000E295EF70E250EE3070F4F0E0E855F74D1A
:102BE0000C941B28803F19F020F4883E20F481E0EB
:102BF0000895843FE1F380E00895883EC0F3813F6B
:102C0000D1F7F5CF93FB882780F908950E94131B15
:102C10000C94E715CF93DF9300D000D00F92CDB77F
:102C2000DEB70F900F900F900F900F90DF91CF9124
:102C30000895CF93DF9300D000D000D0CDB7DEB79A
:102C400026960FB6F894DEBF0FBECDBFDF91CF91B1
:102C500008951F93CF93DF93C091FB0116E08091FD
:102C6000FC018C1304C0DF91CF911F910895D0E037
:102C70001C9FF0011D9FF00D1124E350FE4F408179
:102C8000518162817381848195810E9419162196F8
:102C9000C770E5CF40912D0250912E0260912F0216
:102CA0007091300280913102909132020C94191689
:102CB0001F93CF93DF9380913202807FA9F480919C
:102CC0002F02882389F08091FB01C091FC01609163
:102CD0002D0270912E02A0913002B0913102D62FB8
:102CE000D72316E0C81304C0DF91CF911F91089538
:102CF00090E0109711F0DF3F19F401968770F2CF42
:102D0000189F9001199F300D1124F901E350FE4FD7
:102D100041814713F2CF40814613EFCF42814111E9
:102D2000ECCF438154814A1B5B0B4C32514028F756
:102D3000809132028F70806180933202F901EE5FE0
:102D4000FD4F80818F70806180838DE292E00E94D0
:102D5000A315DF91CF911F910C942916AF92BF92CA
:102D6000CF92DF92EF92FF920F931F93CF93DF9357
:102D7000CDB7DEB761970FB6F894DEBF0FBECDBFFB
:102D80008C0185E0F801DE011D9601900D928A9577
:102D9000E1F7F80140815181E2808DE2C82E82E0A6
:102DA000D82E60913002709131026115710509F4DD
:102DB00062C190912D0220912E02892F82238F3F94
:102DC00009F459C1A380B480F0902F02F501E61BED
:102DD000F70BBF01FF2009F4FCC080913202382FAD
:102DE000307F6C32714008F0B2C0311179C0FE2CD6
:102DF000251323C0941321C0E1101FC08F70806180
:102E0000809332020E944A16C6010E94A315809147
:102E10003202F80185838F2D61960FB6F894DEBFDC
:102E20000FBECDBFDF91CF911F910F91FF90EF901B
:102E3000DF90CF90BF90AF900895AB2829F0842FFA
:102E400085238F3F09F033C180E0F82FF170DF2E2A
:102E500080FF3CC08091FB012091FC0136E0821391
:102E600015C04D875E878D859E850E94131B292F77
:102E700022952F702230F0F0243018F59F70F1F079
:102E8000F8019581907FD1F4D12C1EC090E0389F3D
:102E9000F001399FF00D1124E350FE4F618165135D
:102EA00006C06081641303C062816E110FC0019679
:102EB0008770D5CF9F7011F0882331F3805E883002
:102EC00018F3C8010E94A315FD2CA5CFEE2009F42C
:102ED000A2CF80913202816080933202F12C9BCF8D
:102EE000251306C0941304C0F801EE2009F48DC028
:102EF0004D875E878D859E850E940616882319F171
:102F0000EE2009F180913202803270F020912D0282
:102F100030912E0238872F831986BB86AA868C872C
:102F2000CE0107960E94A31586E0F801ADE2B2E05B
:102F300001900D928A95E1F70E9458160E944A1658
:102F4000FF24F39468CFC8010E94A315F9CF311173
:102F500013C07A2DB98AA88A6E2D89890E940A1613
:102F60008DE292E00E94A31586E0F60111928A9507
:102F7000E9F70E944A16B2CF25130FC094130DC073
:102F8000E1100BC0F8018583C8010E94A31586E0FB
:102F9000F60111928A95E9F73ECF4D875E878D85C0
:102FA0009E850E940616882371F2EE2061F28091C0
:102FB0003202803208F4B8CF20912D0230912E02D7
:102FC0003A8329831B82BD82AC828E83CE01019617
:102FD000A9CF6C32714008F041C0FE2CEE2009F4FC
:102FE000B2CF25132AC0941328C08091320280FDED
:102FF0001BC0982F907FC1F0F8018583903F31F07E
:10300000982F907F905F8F70892B8583C8010E94D5
:10301000A31586E0F801ADE2B2E001900D928A9529
:10302000E1F70E944A16F7CE86E0F801ADE2B2E081
:1030300001900D928A95E1F7EECE4D875E878D85E2
:103040009E850E94061681116FCF809132028160A9
:1030500080933202C8010E94A315DDCE7A2DB98A71
:10306000A88A6E2D89890E940A1686E0F6011192BF
:103070008A95E9F7D6CFEE2009F465CF4D875E87B4
:103080008D859E850E940616F82E882309F45BCF55
:1030900086E0F801ADE2B2E001900D928A95E1F789
:1030A0008DE292E00E949D120E945816BACF81E0F4
:1030B0008E25CBCE1F93CF93DF93CDB7DEB72C9762
:1030C0000FB6F894DEBF0FBECDBF4F835887698718
:1030D0007A878B879C87CE0107960E94AE1688233D
:1030E00069F08A859B85892B39F04F815885842F1B
:1030F00085238F3F09F071C016E05FC086E0FE01B6
:103100003796DE01119601900D928A95E1F78A8536
:103110009B85892B89F388859F8189238F3F61F364
:103120002091FC0130E0C9010196877099274091F8
:10313000FB014817190671F40E94E3151092FC0177
:103140001092FB0186E0EDE2F2E0DF011D928A952C
:10315000E9F7D2CF96E0929FD001939FB00D112452
:10316000A350BE4FFE01319601900D929A95E1F762
:103170008093FC010E942916BFCF819FC0011124BA
:1031800083509E4F0E94AE168823E9F0E091FB0128
:103190001E9FF0011124E350FE4F40815181628156
:1031A0007381848195810E9419168091FB0190E0C2
:1031B0000196877099278093FB018091FB01909184
:1031C000FC018913DACF2C960FB6F894DEBF0FBE40
:1031D000CDBFDF91CF911F91089569857A858B8549
:1031E0009C850E94191688CFEF92FF920F931F9330
:1031F000CF93DF938C01892B81F0F12CEE24E394A3
:10320000E8012196F8018491843770F4843008F045
:103210005FC08130B1F08230A1F1DF91CF911F9179
:103220000F91FF90EF900895853709F44CC008F492
:103230003DC09CE7980F903780F78F770E94F0127F
:1032400049C00E5F1F4FFE01849190E2980F9830A5
:1032500060F48770FE2D01C0FF0F8A95EAF78F2F6B
:103260000E948F1B0E94B81B02C00E94A2128F2DC9
:10327000815030F2EFE9FFE03197F1F700C0000034
:10328000F7CF0E5F1F4FFE01849190E2980F9830A8
:1032900050F48770FE2D01C0FF0F8A95EAF78F2F3B
:1032A0000E94951BDFCF0E94F012E1CF0E5F1F4FEF
:1032B000FE01C491C150D8F28FE99FE00197F1F768
:1032C00000C00000F7CF0E5F1F4FFE01F490CFCF7C
:1032D0000E94A2128E01CBCF08950C946C190E940B
:1032E0006D1960933C0270933D0280933E0290936F
:1032F0003F020C94CD1508950C946F190F931F93F2
:1033000000913C0210913D0220913E0230913F021B
:10331000602B712B822B932B1F910F910C946F19A3
:103320000F931F9300913C0210913D0220913E02A9
:1033300030913F0260237123822393231F910F91C9
:103340000C946F190F931F9300913C0210913D0252
:1033500020913E0230913F026027712782279327F8
:103360001F910F910C946F190C946C190C94B41953
:103370000E94B619609338027093390280933A0222
:1033800090933B020C94CD1560E070E0CB010C945F
:10339000B8190F931F9341E050E060E070E08A019C
:1033A0009B0104C0000F111F221F331F8A95D2F703
:1033B000C901B8011F910F910C94B8190F931F9375
:1033C00041E050E060E070E004C0440F551F661F0C
:1033D000771F8A95D2F78091380290913902A09197
:1033E0003A02B0913B028A019B01082B192B2A2B30
:1033F0003B2BC901B8011F910F910C94B8190F9381
:103400001F9341E050E060E070E004C0440F551F9E
:10341000661F771F8A95D2F7CB01BA016095709528
:1034200080959095009138021091390220913A02CE
:1034300030913B0260237123822393231F910F91CC
:103440000C94B8190F931F9341E050E060E070E0D6
:1034500004C0440F551F661F771F8A95D2F78091CD
:10346000380290913902A0913A02B0913B028A0150
:103470009B01082719272A273B27C901B8011F915B
:103480000F910C94B8190F931F930091380210916B
:10349000390220913A0230913B02602B712B822B32
:1034A000932B1F910F910C94B8190F931F930091B8
:1034B00038021091390220913A0230913B02602388
:1034C0007123822393231F910F910C94B8190F93AA
:1034D0001F93009138021091390220913A023091E5
:1034E0003B0260277127822793271F910F910C942D
:1034F000B8190895E92FEE0FEE0F9E0F890F982F40
:10350000977041E001C0440F9A95EAF78695869539
:10351000869595E0899FF0011124ED5CFD4F30E028
:1035200020E070E05191DF011197CB01022E02C023
:10353000969587950A94E2F7817081958527842373
:1035400085278C932F5F3F4F2530310559F708951C
:10355000E92FEE0FEE0F9E0F890F982F977086952B
:103560008695869525E0829FF0011124ED5CFD4F44
:1035700050E040E080E0219130E0092E02C0369515
:1035800027950A94E2F721703327042E01C0220FF9
:103590000A94EAF7822B4F5F5F4F4530510559F788
:1035A0000895BF92CF92DF92EF92FF920F931F93F5
:1035B000CF93DF938C01C0903802D0903902E09015
:1035C0003A02F0903B0280913C0290913D02A09122
:1035D0003E02B0913F02C82AD92AEA2AFB2ACFE14B
:1035E000D0E0BC2ED701C6010C2E04C0B695A7951D
:1035F000979587950A94D2F780FD0EC0219788F79A
:10360000B12C8B2DDF91CF911F910F91FF90EF90F7
:10361000DF90CF90BF900895B8018C2F0E940004D6
:10362000019761F3EECFCF93DF93EC010E94D11AA3
:10363000BE01DF91CF910C9400041F93CF93DF93D1
:10364000EB019091FA01992331F0CB01DF91CF91F9
:103650001F910C94131B882379F0CB010E94D11A7F
:10366000182F682FCE010E947A1ABE01812FDF9198
:10367000CF911F910C940004CB010E94A81A182F1F
:10368000F4CF682F80912701909128010C94531D4D
:10369000682F80912701909128010C945E1D8091E4
:1036A0002701909128010C94691D80914002859515
:1036B0008595859508958091400287700895909131
:1036C0004002977081E009F480E0089580916402DF
:1036D000089590916402892B8093640208958095E7
:1036E00090916402982390936402089580936402F9
:1036F0000895109264020895809163020895909154
:103700006302892B809363020895809590916302F0
:103710009823909363020895109263020895909104
:103720006202892B809362020895809590916202D3
:1037300098239093620208951092620208958091F6
:103740004102089508950C94A21B9091410298178C
:1037500021F0809341020C94A31B089580914102B3
:10376000882329F01092410280E00C94A31B089555
:10377000E0912701F0912801809164028083E0911B
:103780002701F0912801808190916302892B808329
:10379000E0912701F0912801808190916202892BAC
:1037A000808390914102992381F0E0912701F0916B
:1037B00028018081892B80838091270190912801A5
:1037C0000E94BF1C81110E94AE1B80912701909125
:1037D00028010C94831108950C94EB1B98E0899FA9
:1037E00090011124622B609340020E94DE198091A7
:1037F00040028595859585950C94EC1B10924002AE
:1038000080E00C94EC1B909140028095892380937A
:103810004002282F277071F4282F082E000C330B3C
:103820009217130639F08595859585950E94FF19A5
:103830000C94FE1B089590E080E00E94482821E04F
:103840008C3E9E4F09F020E0822F089582E090E0A8
:103850000C943A2883E090E00C943A28CF9384E0CB
:1038600090E00E943A28C82F81E290E00E943A2816
:10387000982F8C2FCF910895CF93C92F682F84E074
:1038800090E00E944E286C2F81E290E0CF910C9442
:103890004E28AB01BC018FE090E00C946028AB0196
:1038A000BC0183E190E00C94602860E070E0CB0103
:1038B0000C944F1C60E070E0CB010E94491C0C94FA
:1038C000551C6CEE7EEF90E080E00E946C2860E07A
:1038D00082E090E00E944E2860E083E090E00E9449
:1038E0004E2810923C0210923D0210923E0210921D
:1038F0003F0260E084E090E00E944E2860E081E2B8
:1039000090E00E944E2860E085E090E00E944E2802
:1039100060E086E090E00E944E286FEF87E090E044
:103920000E944E2840E050E0BA0188E090E00E94FA
:10393000602860E08DE090E00E944E2840E050E07A
:10394000BA0188E190E00E94602860E087E190E0A1
:103950000E944E2840E050E0BA018CE190E00E94C5
:10396000602860E080E290E00E944E280C945A1C8F
:103970000C94611C682F8EE090E00C944E28FC01A2
:10398000329680913B01882321F08091B9029EE11B
:1039900087FF96E080E0915008F40895219122235A
:1039A000D1F38F5FF8CF662301F120913B012223F1
:1039B000F1F02091B90227FF1AC0462F469546958F
:1039C00046954E3190F4677021E030E002C0220F3E
:1039D000331F6A95E2F7840F911DFC01828190E00C
:1039E0002823392381E0232B69F480E00895FC012A
:1039F000329608962191261721F0E817F907D1F79A
:103A0000F4CF81E008959C01FC0132969FEF80E0A5
:103A10004191461751F09F3F19F4411101C0982F71
:103A20008F5F8630A9F79F3F09F40895290F311D54
:103A300097FD3A95F90162830895FC013296089644
:103A40002191261303C0DF0111971C92E817F90793
:103A5000B9F70895E62FE695E695E695EE3168F418
:103A6000E80FF92FF11D677021E030E001C0220F4F
:103A70006A95EAF78281822B82830895E62FE69584
:103A8000E695E695EE3170F4E80FF92FF11D6770B9
:103A900021E030E001C0220F6A95EAF7209582818B
:103AA00028232283089520913B01222329F020918D
:103AB000B90227FD0C942A1D0C94031D20913B0193
:103AC000222329F02091B90227FD0C943E1D0C946D
:103AD0001D1DFC01329680913B01882351F080919D
:103AE000B90287FF06C08EE1DF011D928A95E9F7D2
:103AF000089586E0F9CF089508950C947C1D0E94E6
:103B00007D1D8091BF02843049F11092660288E1E8
:103B100090E020E40FB6F894A895809360000FBE63
:103B20002093600080E00E9474030E947D1D83B793
:103B3000817F846083BF83B7816083BF78948895D9
:103B400083B78E7F83BF0FB6F894A89580916000ED
:103B5000886180936000109260000FBE0895089500
:103B60000E947B1D0E9423060E94AF1D80E00E94E0
:103B7000F30591E0811101C090E0892F0895089527
:103B80000C94BF1D0E94E3150E9477110E947403DC
:103B90000C94C01D1F921FB61F9211248F939F93E8
:103BA000AF93BF9380916602811113C08091B502DB
:103BB0009091B602A091B702B091B8024196A11DB2
:103BC000B11D8093B5029093B602A093B702B09353
:103BD000B802BF91AF919F918F911F901FBE1F9010
:103BE000189582E084BD93E095BD9AEF97BD8093D0
:103BF0006E0008952FB7F8948091B5029091B602A7
:103C0000A091B702B091B8022FBF08959C014FB7A1
:103C1000F8948091B5029091B602A091B702B0914C
:103C2000B8024FBF821B930B089578941F921FB662
:103C30001F9211248F939F93AF93BF938091B502EE
:103C40009091B602A091B702B091B8020196A11D61
:103C5000B11D8093B5029093B602A093B702B093C2
:103C6000B802BF91AF919F918F911F901FBE1F907F
:103C7000189587E797E7909301088093000888E1FB
:103C80009AE00FB6F894A895809360000FBE9093C9
:103C90006000FFCF0E941B1C811102C00E94B81C53
:103CA0000E94261C809365020E942E1C9093BA02EB
:103CB0008093B9020E942A1C682F70E090E080E097
:103CC0000C947C1980916E0280FF12C060912E01CD
:103CD00085E0689FB0011124759567957595679586
:103CE00060387105A8F561157105A1F1862F089559
:103CF00081FF09C060912E0185E0689FB001112409
:103D000075956795EDCF60912E0182FD0AC0809177
:103D10006D028823D1F090912D0160912E018917B9
:103D200028F085E0689FB0011124DACF869FB001AA
:103D3000112485E0869F9001879F300D1124692F03
:103D400070E0C9010E940728CBCF65E070E0CECFBC
:103D50008FE7089581E0089580916E0280FF0CC086
:103D600060912A0170E07595679575956795611565
:103D7000710549F1862F089581FF06C060912A01DF
:103D800070E075956795F3CF60912A0182FD0BC0B5
:103D900090916D029923A1F06091290180912A01EF
:103DA000961738F0682F70E06038710500F38FE7E0
:103DB0000895899FC001112470E00E940728F4CF64
:103DC00061E070E0D7CF81E00895803F31F40E9438
:103DD000621E8195809372020895813F19F40E94BA
:103DE000621EF8CF823F31F40E94621E819580935B
:103DF00071020895833F19F40E94621EF8CF893F33
:103E000029F40E94AC1E8093730208958A3F21F426
:103E10000E94AC1E8195F7CF8B3F31F40E94AC1EFF
:103E200081958093740208958C3F19F40E94AC1E12
:103E3000F8CF843F31F480917002816080937002EA
:103E40000895853F21F4809170028260F7CF863F0C
:103E500021F4809170028460F1CF873F21F480913A
:103E600070028860EBCF883F21F4809170028061FE
:103E7000E5CF8D3F31F480916E02816080936E02B8
:103E800008958E3F21F480916E028260F7CF8F3FBC
:103E9000B9F780916E028460F1CF90917102803FFA
:103EA00041F48091720287FD10927202992371F0A1
:103EB0000895813F29F4809172021816ACF3F6CF71
:103EC000823F81F497FFF2CF1092710280917202CB
:103ED00090917302892B90917402892B49F710926B
:103EE0006D020895833F19F4191674F3DFCF893FEB
:103EF00039F4809173021816CCF610927302D6CF63
:103F00008A3F29F48091730287FFD0CFF6CF8B3F91
:103F100039F48091740287FFC9CF10927402C6CF22
:103F20008C3F29F4809174021816BCF3BFCF843FF4
:103F300031F4809170028E7F80937002B7CF853FFD
:103F400021F4809170028D7FF7CF863F21F480911C
:103F500070028B7FF1CF873F21F480917002877FC1
:103F6000EBCF883F21F4809170028F7EE5CF8D3FAB
:103F700031F480916E028E7F80936E0297CF8E3FD8
:103F800021F480916E028D7FF7CF8F3F09F08ECFA5
:103F900080916E028B7FF0CF8FE692E00E949D11A0
:103FA0000E94FA1D90936C0280936B020895CF9348
:103FB000DF9300D000D000D0CDB7DEB786E0EFE6CB
:103FC000F2E0DE01119601900D928A95E1F7809161
:103FD000710290917202892B81F080916902909117
:103FE0006A020E94061EAC0190916D02992331F184
:103FF00080912F018417150670F1809173029091C2
:104000007402892B91F080916702909168020E945E
:10401000061EAC0190916D02992309F478C080913D
:104020002B018417150608F480C026960FB6F89465
:10403000DEBF0FBECDBFDF91CF910895209130013B
:104040008AE0289F9001112424173507B0F69F5F5E
:1040500090936D0202C09F3FD1F7109273021092AD
:10406000740280917102181624F40E94621E8093DB
:1040700071028091710287FF05C00E94621E8195C6
:104080008093710280917202181624F40E94621EBD
:10409000809372028091720287FF05C00E94621EA7
:1040A000819580937202309171023323A1F02091A7
:1040B0007202222381F045EB3403C00111249923BD
:1040C000F1F09093710245EB240390011124332306
:1040D000D1F0309372020E94CC1F80916B029091BC
:1040E0006C0290936A028093690286E0FE01319629
:1040F000AFE6B2E001900D928A95E1F77ECF81E0C4
:1041000080937102E0CF81E080937202E4CF20912E
:104110002C018AE0289F900111242417350708F00C
:1041200084CF9F5F90936D0202C09F3FD1F71092A2
:1041300071021092720280917302181624F40E9488
:10414000AC1E809373028091730287FF05C00E94AA
:10415000AC1E81958093730280917402181624F42A
:104160000E94AC1E809374028091740287FF05C088
:104170000E94AC1E819580937402309173023323A8
:10418000A1F020917402222381F045EB3403C00199
:1041900011249923F1F09093730245EB24039001CD
:1041A00011243323D1F0309374020E94CC1F8091EC
:1041B0006B0290916C02909368028093670286E094
:1041C000FE013196AFE6B2E001900D928A95E1F7DB
:1041D0002CCF81E080937302E0CF81E08093740262
:1041E000E4CF86E0EFE6F2E0DF011D928A95E9F781
:1041F00010926D0210926E020895809195020895BA
:10420000CF93DF9300D00F92CDB7DEB79091BF026E
:10421000943019F589837B836A8382E08093E90077
:104220008FEF9091E800815095FD06C095ED9A952D
:10423000F1F700008111F5CF8091E80085FF0DC0F6
:1042400050E040E063E070E0CE0101960E9454230C
:104250008091E8008E778093E8000F900F900F9088
:10426000DF91CF910895CF93DF93EC010E94372324
:10427000823011F0843031F4BE0184E0DF91CF91BF
:104280000C940021DF91CF910895BC0183E00C9440
:104290000021CF93DF93EC010E943723823011F08D
:1042A0008430F9F482E08093E9008FEF9091E80088
:1042B000815095FD06C095ED9A95F1F700008111AA
:1042C000F5CF8091E80085FF0CC050E040E066E04B
:1042D00070E0CE010E9454238091E8008E77809395
:1042E000E800DF91CF910895CF93DF93EC010E9416
:1042F0003723823011F08430B9F580913B01882357
:10430000B1F18091B90287FF32C060E282E0809310
:10431000E9008FEF9091E800815095FD06C095ED82
:104320009A95F1F700008111F5CF8091E80085FFA3
:104330001BC080913B0170E050E040E0811104C05F
:1043400050E040E068E070E0CE010E94542380918C
:10435000E8008E778093E80080E2FE01A5E7B2E0F6
:1043600001900D928A95E1F7DF91CF91089568E071
:1043700081E0CDCF8091BE02811109C00E94E4246A
:104380000E9441258091E20084608093E2000895BC
:104390001092BE020895089508950C94C21D42E043
:1043A00061EC81E00E94602442E261EC82E00C94C6
:1043B00060248091C102833009F45FC030F4813001
:1043C000C1F1823009F49BC008958A3009F487C096
:1043D0008B3009F46DC0893009F04EC08091C00265
:1043E000813209F049C08091C4029091C5020297C0
:1043F00008F042C08091E800877F8093E8008091B8
:10440000E80082FF35C09091F3008091F20002979E
:1044100029F48091F1008B7F813021F48091F100AB
:10442000809395028091E8008B778093E8000C944C
:1044300094248091C002813AF9F48091E800877F4A
:104440008093E8008091C4029091C502892B61F4A9
:1044500060E285E792E070E00E94A3238091E8008B
:104460008B778093E800089560E090E080E0F3CFE0
:104470008091BF028111C3CF08958091C002813A1B
:10448000D9F78091C4029091C502892BA9F7809138
:10449000E800877F8093E8008091E80080FFFCCFF0
:1044A00080913B018093F1008091E8008E77BDCF31
:1044B0008091C002813201F78091C4029091C502BF
:1044C000892BD1F68091E800877F8093E8000E94D5
:1044D00094248091C20280933B010C94E315809157
:1044E000C002813249F68091E800877F8093E8001E
:1044F0000E9494248091C302809396020895809133
:10450000C002813A09F0B8CF8091E800877F80939C
:10451000E8008091E80080FFFCCF80919602C2CF36
:1045200084B7877F84BF0FB6F894A8958091600008
:10453000886180936000109260000FBE80E890E078
:104540000FB6F89480936100909361000FBE0E94B3
:10455000E5110E94E4240E9441258091E2008460DC
:104560008093E20078940E94CA270E94ED1181E3B3
:1045700091E00E9472118091BF02853019F00E9473
:10458000F711F9CF0E947F1D8091BD02882399F316
:104590000E94B01D882379F30E943E23ECCF0C9437
:1045A000D122292F33272330310519F168F4213026
:1045B000310509F44AC02230310509F44BC090E0BE
:1045C00080E030E020E028C02132310579F122324C
:1045D0003105A9F780E490E026E134E0611571052A
:1045E000D9F08CEB90E02AE533E061307105A1F061
:1045F000E6CF99278130910599F0009741F08230FC
:10460000910589F00397D9F6EDECF2E002C0E9E0FC
:10461000F3E0849190E09F01FA01318320830895B3
:10462000E9EEF2E0F6CFE3EDF2E0F3CF89E090E0DF
:104630002FE133E06115710579F389E090E028E31B
:1046400033E06130710541F3BACF82E190E028E4B4
:1046500033E0E2CF8BE390E02DE033E0DDCF8091DB
:10466000BF02843011F482E0089581E008958091C2
:104670009702811102C00C942F23089580E189BD17
:1046800082E189BD09B400FEFDCF8091D8008F7D05
:104690008093D8008091E00082608093E000809158
:1046A000E00081FDFCCF0895AF92BF92CF92DF92E0
:1046B000FF920F931F93CF93DF936C01EB018A015D
:1046C0000E94B324F82E811123C00115110539F081
:1046D000F80180819181C81BD90BC80ED91EB12C5D
:1046E000A12C2097A9F08091E80085FD22C080913F
:1046F000E8008E778093E80001151105A1F0F8011C
:1047000080819181A80EB91EB182A08285E0F82E29
:104710008F2DDF91CF911F910F91FF90DF90CF9060
:10472000BF90AF9008950E94B3248823D1F2F82E51
:10473000EFCFF60181916F018093F1002197FFEF98
:10474000AF1ABF0ACECFFC018091C6029091C7027A
:1047500086179707A0F06115710529F49091E8007C
:104760009E779093E80090E06115710551F49111E6
:1047700008C08091E80082FF34C080E00895BC0149
:10478000F2CF8091BF028823C1F18530C1F18091C1
:10479000E80083FD30C08091E80082FDEACF80917F
:1047A000E80080FFE1CF8091F3002091F200382FE4
:1047B0006115710519F02830310558F091E0283065
:1047C000310509F090E02091E8002E772093E80071
:1047D000CBCF81918093F100615071092F5F3F4FE2
:1047E000E7CF8091BF02882341F0853041F080916E
:1047F000E80083FFBECF81E0089582E0089583E062
:104800000895FC018091C6029091C7028617970710
:10481000A0F06115710529F48091E8008E778093EE
:10482000E80090E06115710551F4911108C0809184
:10483000E80082FF35C080E00895BC01F2CF80918E
:10484000BF028823C9F18530C9F18091E80083FD5A
:1048500031C08091E80082FDEACF8091E80080FFBE
:10486000E1CF8091F3002091F200382F611571059E
:1048700019F02830310558F091E02830310509F061
:1048800090E08091E8008E778093E800CBCF849110
:104890008093F1003196615071092F5F3F4FE6CF51
:1048A0008091BF02882341F0853041F08091E8007B
:1048B00083FFBDCF81E0089582E0089583E00895ED
:1048C000982F973028F08F708093E90081E0089549
:1048D0009093E900242F762F50E0981731F07091D3
:1048E000EC002091ED005091F00021FD02C09F5F8F
:1048F000E8CF3091EB003E7F3093EB003091ED003C
:104900003D7F3093ED003091EB0031603093EB0050
:104910007093EC002093ED005093F0002091EE0096
:1049200027FDE5CF80E008958091C00287FF13C086
:104930008091E80082FF06C08091E8008B77809329
:10494000E80004C08091BF028111F2CF08958091E8
:10495000BF028823D9F38091E80080FFF8CF8091CF
:10496000E8008E77ECCF2091E4003091E50095E6E9
:10497000A9012091EC00822F817020FF06C0809158
:10498000E80080FF06C080E008952091E80022FD45
:104990001AC08091BF02882389F0853089F0809108
:1049A000EB0085FD0FC02091E4003091E500421737
:1049B0005307F9F29150E1F684E0089582E00895FA
:1049C00083E0089581E008950E9452250E945A25AF
:1049D000E0EEF0E0808181608083E8EDF0E08081AE
:1049E0008F77808319BCA7EDB0E08C918E7F8C937C
:1049F00080818F7E80831092BE0208950F931F9353
:104A0000CF93DF930E9452250E945A25C8EDD0E033
:104A100088818F77888388818068888388818F7D6B
:104A2000888319BC1092BF021092BB021092BD0283
:104A30001092BC0200EE10E0F80180818B7F808331
:104A400088818160888342E060E080E00E94602489
:104A5000E1EEF0E080818E7F8083E2EEF0E0808105
:104A600081608083808188608083F80180818E7F6F
:104A70008083888180618883DF91CF911F910F911E
:104A80000895E8EDF0E080818F7E8083E7EDF0E02F
:104A900080818160808384E082BF81E08093BE0258
:104AA0000C94FE24E8EDF0E080818E7F80831092EC
:104AB000E20008951092DA001092E10008951F922A
:104AC0000F920FB60F9211242F933F934F935F9342
:104AD0006F937F938F939F93AF93BF93EF93FF93C6
:104AE0008091E10082FF0BC08091E20082FF07C04D
:104AF0008091E1008B7F8093E1000E94C927809123
:104B0000DA0080FF19C08091D80080FF15C0809125
:104B1000DA008E7F8093DA008091D90080FF96C002
:104B200080E189BD82E189BD09B400FEFDCF81E04D
:104B30008093BF020E94BA218091E10080FF19C0DA
:104B40008091E20080FF15C08091E2008E7F80930B
:104B5000E2008091E20080618093E2008091D800C1
:104B600080628093D80019BC85E08093BF020E94C8
:104B7000CC218091E10084FF2BC08091E20084FF72
:104B800027C080E189BD82E189BD89B5982F9170E8
:104B900080FFFBCF8091D8008F7D8093D8008091DB
:104BA000E1008F7E8093E1008091E2008F7E809310
:104BB000E2008091E20081608093E2008091BB027C
:104BC000882309F449C084E08093BF020E94CD216C
:104BD0008091E10083FF29C08091E20083FF25C01E
:104BE0008091E100877F8093E10082E08093BF02A3
:104BF0001092BB028091E1008E7F8093E100809152
:104C0000E2008E7F8093E2008091E20080618093D9
:104C1000E20042E060E080E00E9460248091F000C9
:104C200088608093F0000E94CB21FF91EF91BF91AB
:104C3000AF919F918F917F916F915F914F913F9134
:104C40002F910F900FBE0F901F90189519BC1092C6
:104C5000BF020E94C82170CF8091E30087FD93E0DE
:104C60009093BF02B3CF1F920F920FB60F921124F1
:104C70002F933F934F935F936F937F938F939F9364
:104C8000AF93BF93CF93DF93EF93FF93D091E9005E
:104C9000DF708091EC00C82FC17080FDC0E81092D9
:104CA000E9008091F000877F8093F00078940E9463
:104CB00077261092E9008091F00088608093F000E0
:104CC000CD2BCF70C093E900FF91EF91DF91CF9191
:104CD000BF91AF919F918F917F916F915F914F9114
:104CE0003F912F910F900FBE0F901F9018951F931B
:104CF000CF93DF93CDB7DEB7AA970FB6F894DEBF98
:104D00000FBECDBF80EC92E02091F100FC01219319
:104D1000CF01F2E0883C9F07B9F70E94D92180912A
:104D2000E80083FF1EC18091C0029091C1029A30B9
:104D300008F017C1E92FF0E0EA54F74D0C941B2856
:104D4000803899F0823809F00CC18091C4028F70CC
:104D5000873008F006C18093E9008091EB0085FB65
:104D6000882780F91092E90006C08091BC029091DA
:104D7000BD02911182609091E800977F9093E800C6
:104D80008093F1001092F1008091E8008E77E5C0E9
:104D9000882309F4D3C0823009F0E3C08091C202B5
:104DA0008111D6C08091C4028F702FEF280F26305A
:104DB00008F0D7C08093E9002091EB0020FFC8C025
:104DC000933031F48091EB0080628093EB00C0C09F
:104DD0009091EB0090619093EB0021E030E001C0F6
:104DE000220F8A95EAF72093EA001092EA00809158
:104DF000EB008860EACF8111B4C01091C2021F7726
:104E00008091E3008078812B8093E3008091E8001B
:104E1000877F8093E8000E9494248091E80080FFBF
:104E2000FCCF8091E30080688093E30082E0111161
:104E300083E08093BF0295C08058823008F091C013
:104E40008091C2029091C3028C3D23E09207A1F5AC
:104E500083E08A838AE289834FB7F894DE01139650
:104E600020E03EE051E2E32FF0E050935700E49160
:104E700020FF03C0E295EF703F5FEF708E2F90E050
:104E8000EA30C0F0C7968D939D932F5F243159F778
:104E90004FBF8091E800877F8093E8006AE270E06E
:104EA000CE0101960E94A3238091E8008B77809326
:104EB000E80057C0C096E7CF6091C4027091C50268
:104EC000AE014F5F5F4F0E94CF22BC01892B09F4D6
:104ED00048C09091E800977F9093E80089819A817B
:104EE0000E940124E1CF8038E1F58091E800877FBE
:104EF0008093E8008091BB028093F10045CF81113F
:104F000030C09091C202923060F58091E800877FB6
:104F10008093E8009093BB020E9494248091BB028E
:104F2000882311F084E005C08091E30087FDFACF6B
:104F300081E08093BF020E94CF2113C08091C20202
:104F4000813079F481E0933009F080E08093BD02F4
:104F50001092E9008091E800877F8093E8000E942A
:104F600094248091E80083FF0AC08091E800877F45
:104F70008093E8008091EB0080628093EB00AA961A
:104F80000FB6F894DEBF0FBECDBFDF91CF911F915A
:104F900008950895CF938091BF028823A1F0C09116
:104FA000E900CF709091EC00892F817090FD80E82E
:104FB000C82B1092E9008091E80083FD0E947726BB
:104FC000CF70C093E900CF91089587FB082E062685
:104FD00087FD819567FD61950E9421280EF49195CA
:104FE00007FC81950895AA1BBB1B51E107C0AA1FAE
:104FF000BB1FA617B70710F0A61BB70B881F991F7A
:105000005A95A9F780959095BC01CD01089597FB1D
:10501000072E16F4009407D077FD09D00E94F327DD
:1050200007FC05D03EF4909581959F4F08957095AB
:1050300061957F4F0895EE0FFF1F0590F491E02DCD
:105040000994991B79E004C0991F961708F0961BE4
:10505000881F7A95C9F780950895FC01415050400A
:1050600030F001900616D1F73197CF0108958827C7
:1050700099270895F999FECF92BD81BDF89A992795
:1050800080B50895A6E1B0E044E050E00C947428A7
:10509000A8E1B0E042E050E00C947428262FF99982
:1050A000FECF92BD81BDF89A019700B4021639F087
:1050B0001FBA20BD0FB6F894FA9AF99A0FBE089558
:1050C0000396272F0E944F280E944E28252F0E94CA
:1050D0004F28242F0C944F280196272F0E944F28E9
:1050E0000C944E28DC01CB01FC01F999FECF06C0DF
:1050F000F2BDE1BDF89A319600B40D924150504096
:10510000B8F70895F894FFCF7A0C820C890C8E0CB6
:10511000930C980C9D0CA20CA70CAC0CB10CB60C0B
:10512000BA0CBF0CC20CC50CC80CCB0CCD0CD00CEF
:1051300073137313CB13CB131D143914A013A013C3
:105140007B140715161516157215A013A0137B15E1
:10515000F215F215FB15FB15FD15FB15FB15FB15DF
:10516000F215F2150216FB15FB150216A026C8262D
:10517000B127C826B127FB261C27B12773277F2715
:1051800000007602000000000000000000000000A7
:10519000000000000000010205050501191A1B1C92
:1051A0001D1E1F202122FF42022808641E140A32FD
:1051B0001EFD20742149214521332101E200E9002F
:1051C000EA00B500B600B700CD008301CC008A012B
:1051D00092019401210223022402250226022702C1
:1051E0002A02B300B4006F00700081828337949666
:1051F000F6F700010202020206060609090909097A
:10520000090F0F0F0F0F0F15151518191919191967
:105210001919191919232400FF0100010000FFFFCB
:105220000000010001FF00E200E900EA00B500B65D
:1052300000B700CD008301CC008A019201940121C6
:1052400002230224022502260227022A02B300B406
:08525000006F007000818283F1
:00000001FF
